{
  "_format": "hh-sol-artifact-1",
  "contractName": "BettingPools",
  "sourceName": "contracts/BettingPools.sol",
  "abi": [
    {
      "inputs": [
        {
          "internalType": "contract IERC20",
          "name": "_bundToken",
          "type": "address"
        },
        {
          "internalType": "address",
          "name": "_grader",
          "type": "address"
        },
        {
          "internalType": "address",
          "name": "_protocolFeeCollector",
          "type": "address"
        }
      ],
      "stateMutability": "nonpayable",
      "type": "constructor"
    },
    {
      "anonymous": false,
      "inputs": [
        {
          "indexed": false,
          "internalType": "address",
          "name": "_admin",
          "type": "address"
        },
        {
          "indexed": false,
          "internalType": "bool",
          "name": "_enabled",
          "type": "bool"
        }
      ],
      "name": "AdminAccessSet",
      "type": "event"
    },
    {
      "anonymous": false,
      "inputs": [
        {
          "indexed": true,
          "internalType": "address",
          "name": "previousOwner",
          "type": "address"
        },
        {
          "indexed": true,
          "internalType": "address",
          "name": "newOwner",
          "type": "address"
        }
      ],
      "name": "OwnershipTransferred",
      "type": "event"
    },
    {
      "anonymous": false,
      "inputs": [
        {
          "indexed": true,
          "internalType": "uint256",
          "name": "poolID",
          "type": "uint256"
        },
        {
          "indexed": true,
          "internalType": "address",
          "name": "better",
          "type": "address"
        },
        {
          "indexed": false,
          "internalType": "uint256[]",
          "name": "selections",
          "type": "uint256[]"
        }
      ],
      "name": "betPlaced",
      "type": "event"
    },
    {
      "anonymous": false,
      "inputs": [
        {
          "indexed": true,
          "internalType": "address",
          "name": "withdrawnTo",
          "type": "address"
        },
        {
          "indexed": true,
          "internalType": "uint256",
          "name": "amount",
          "type": "uint256"
        }
      ],
      "name": "emergencyWithdrawal",
      "type": "event"
    },
    {
      "anonymous": false,
      "inputs": [
        {
          "indexed": true,
          "internalType": "string",
          "name": "espn_id",
          "type": "string"
        }
      ],
      "name": "matchAdded",
      "type": "event"
    },
    {
      "anonymous": false,
      "inputs": [
        {
          "indexed": true,
          "internalType": "string",
          "name": "espn_id",
          "type": "string"
        },
        {
          "indexed": true,
          "internalType": "uint256",
          "name": "statusCode",
          "type": "uint256"
        },
        {
          "indexed": true,
          "internalType": "address",
          "name": "grader",
          "type": "address"
        }
      ],
      "name": "matchGraded",
      "type": "event"
    },
    {
      "anonymous": false,
      "inputs": [
        {
          "indexed": true,
          "internalType": "uint256",
          "name": "poolID",
          "type": "uint256"
        },
        {
          "indexed": true,
          "internalType": "uint256",
          "name": "matchCount",
          "type": "uint256"
        },
        {
          "indexed": true,
          "internalType": "uint256",
          "name": "winPercentage",
          "type": "uint256"
        },
        {
          "indexed": false,
          "internalType": "uint256",
          "name": "start_time",
          "type": "uint256"
        },
        {
          "indexed": false,
          "internalType": "uint256",
          "name": "end_time",
          "type": "uint256"
        }
      ],
      "name": "poolAdded",
      "type": "event"
    },
    {
      "anonymous": false,
      "inputs": [
        {
          "indexed": false,
          "internalType": "uint256",
          "name": "poolID",
          "type": "uint256"
        }
      ],
      "name": "poolArchived",
      "type": "event"
    },
    {
      "anonymous": false,
      "inputs": [
        {
          "indexed": true,
          "internalType": "address",
          "name": "claimer",
          "type": "address"
        },
        {
          "indexed": false,
          "internalType": "uint256",
          "name": "poolID",
          "type": "uint256"
        },
        {
          "indexed": false,
          "internalType": "uint256",
          "name": "amount",
          "type": "uint256"
        }
      ],
      "name": "rewardClaimed",
      "type": "event"
    },
    {
      "inputs": [
        {
          "internalType": "string",
          "name": "pool_name",
          "type": "string"
        },
        {
          "internalType": "uint256",
          "name": "entry_fee",
          "type": "uint256"
        },
        {
          "internalType": "uint256",
          "name": "protocol_fee",
          "type": "uint256"
        },
        {
          "internalType": "uint256",
          "name": "bet_start_time",
          "type": "uint256"
        },
        {
          "internalType": "uint256",
          "name": "bet_end_time",
          "type": "uint256"
        },
        {
          "internalType": "string[]",
          "name": "match_ids",
          "type": "string[]"
        },
        {
          "internalType": "uint256",
          "name": "max_participants",
          "type": "uint256"
        },
        {
          "internalType": "uint256",
          "name": "winnerPercentage",
          "type": "uint256"
        }
      ],
      "name": "addPoolData",
      "outputs": [
        {
          "internalType": "uint256",
          "name": "",
          "type": "uint256"
        }
      ],
      "stateMutability": "nonpayable",
      "type": "function"
    },
    {
      "inputs": [
        {
          "internalType": "address",
          "name": "",
          "type": "address"
        },
        {
          "internalType": "uint256",
          "name": "",
          "type": "uint256"
        }
      ],
      "name": "addressBettingInPool",
      "outputs": [
        {
          "internalType": "bool",
          "name": "",
          "type": "bool"
        }
      ],
      "stateMutability": "view",
      "type": "function"
    },
    {
      "inputs": [
        {
          "internalType": "address",
          "name": "",
          "type": "address"
        },
        {
          "internalType": "uint256",
          "name": "",
          "type": "uint256"
        }
      ],
      "name": "addressPoolRewards",
      "outputs": [
        {
          "internalType": "uint256",
          "name": "",
          "type": "uint256"
        }
      ],
      "stateMutability": "view",
      "type": "function"
    },
    {
      "inputs": [
        {
          "internalType": "string",
          "name": "",
          "type": "string"
        }
      ],
      "name": "allMatches",
      "outputs": [
        {
          "internalType": "string",
          "name": "espn_id",
          "type": "string"
        },
        {
          "internalType": "string",
          "name": "name",
          "type": "string"
        },
        {
          "internalType": "string",
          "name": "teamA",
          "type": "string"
        },
        {
          "internalType": "string",
          "name": "teamB",
          "type": "string"
        },
        {
          "internalType": "enum BettingPools.matchStatus",
          "name": "status",
          "type": "uint8"
        }
      ],
      "stateMutability": "view",
      "type": "function"
    },
    {
      "inputs": [
        {
          "internalType": "uint256",
          "name": "",
          "type": "uint256"
        }
      ],
      "name": "allPools",
      "outputs": [
        {
          "internalType": "uint256",
          "name": "poolID",
          "type": "uint256"
        },
        {
          "internalType": "string",
          "name": "poolName",
          "type": "string"
        },
        {
          "internalType": "uint256",
          "name": "startTime",
          "type": "uint256"
        },
        {
          "internalType": "uint256",
          "name": "endTime",
          "type": "uint256"
        },
        {
          "internalType": "uint256",
          "name": "entryFee",
          "type": "uint256"
        },
        {
          "internalType": "uint256",
          "name": "protocolFee",
          "type": "uint256"
        },
        {
          "internalType": "uint256",
          "name": "winnerPercentage",
          "type": "uint256"
        },
        {
          "internalType": "uint256",
          "name": "maxParticipants",
          "type": "uint256"
        },
        {
          "internalType": "bool",
          "name": "isArchived",
          "type": "bool"
        },
        {
          "internalType": "bool",
          "name": "rewardsCalculated",
          "type": "bool"
        }
      ],
      "stateMutability": "view",
      "type": "function"
    },
    {
      "inputs": [
        {
          "internalType": "uint256",
          "name": "poolId",
          "type": "uint256"
        }
      ],
      "name": "archivePool",
      "outputs": [],
      "stateMutability": "nonpayable",
      "type": "function"
    },
    {
      "inputs": [
        {
          "internalType": "string[]",
          "name": "espn_ids",
          "type": "string[]"
        },
        {
          "internalType": "string[]",
          "name": "match_names",
          "type": "string[]"
        },
        {
          "internalType": "string[]",
          "name": "teamAs",
          "type": "string[]"
        },
        {
          "internalType": "string[]",
          "name": "teamBs",
          "type": "string[]"
        }
      ],
      "name": "batchAddMatches",
      "outputs": [],
      "stateMutability": "nonpayable",
      "type": "function"
    },
    {
      "inputs": [],
      "name": "bund",
      "outputs": [
        {
          "internalType": "contract IERC20",
          "name": "",
          "type": "address"
        }
      ],
      "stateMutability": "view",
      "type": "function"
    },
    {
      "inputs": [
        {
          "internalType": "uint256",
          "name": "pool_id",
          "type": "uint256"
        }
      ],
      "name": "calculateReward",
      "outputs": [],
      "stateMutability": "nonpayable",
      "type": "function"
    },
    {
      "inputs": [
        {
          "internalType": "uint256",
          "name": "pool_id",
          "type": "uint256"
        }
      ],
      "name": "cancelBet",
      "outputs": [],
      "stateMutability": "nonpayable",
      "type": "function"
    },
    {
      "inputs": [
        {
          "internalType": "address",
          "name": "_grader",
          "type": "address"
        }
      ],
      "name": "changeGrader",
      "outputs": [],
      "stateMutability": "nonpayable",
      "type": "function"
    },
    {
      "inputs": [
        {
          "internalType": "uint256",
          "name": "pool_id",
          "type": "uint256"
        }
      ],
      "name": "claimReward",
      "outputs": [],
      "stateMutability": "nonpayable",
      "type": "function"
    },
    {
      "inputs": [],
      "name": "emergencyWithdraw",
      "outputs": [],
      "stateMutability": "nonpayable",
      "type": "function"
    },
    {
      "inputs": [],
      "name": "globalBetsID",
      "outputs": [
        {
          "internalType": "uint256",
          "name": "_value",
          "type": "uint256"
        }
      ],
      "stateMutability": "view",
      "type": "function"
    },
    {
      "inputs": [],
      "name": "grader",
      "outputs": [
        {
          "internalType": "address",
          "name": "",
          "type": "address"
        }
      ],
      "stateMutability": "view",
      "type": "function"
    },
    {
      "inputs": [
        {
          "internalType": "address",
          "name": "",
          "type": "address"
        },
        {
          "internalType": "uint256",
          "name": "",
          "type": "uint256"
        }
      ],
      "name": "hasClaimedRewards",
      "outputs": [
        {
          "internalType": "bool",
          "name": "",
          "type": "bool"
        }
      ],
      "stateMutability": "view",
      "type": "function"
    },
    {
      "inputs": [
        {
          "internalType": "address",
          "name": "admin",
          "type": "address"
        }
      ],
      "name": "isAdmin",
      "outputs": [
        {
          "internalType": "bool",
          "name": "",
          "type": "bool"
        }
      ],
      "stateMutability": "view",
      "type": "function"
    },
    {
      "inputs": [
        {
          "internalType": "string",
          "name": "",
          "type": "string"
        },
        {
          "internalType": "uint256",
          "name": "",
          "type": "uint256"
        }
      ],
      "name": "isMatchInPool",
      "outputs": [
        {
          "internalType": "bool",
          "name": "",
          "type": "bool"
        }
      ],
      "stateMutability": "view",
      "type": "function"
    },
    {
      "inputs": [
        {
          "internalType": "string",
          "name": "",
          "type": "string"
        }
      ],
      "name": "matchExists",
      "outputs": [
        {
          "internalType": "bool",
          "name": "",
          "type": "bool"
        }
      ],
      "stateMutability": "view",
      "type": "function"
    },
    {
      "inputs": [],
      "name": "owner",
      "outputs": [
        {
          "internalType": "address",
          "name": "",
          "type": "address"
        }
      ],
      "stateMutability": "view",
      "type": "function"
    },
    {
      "inputs": [
        {
          "internalType": "uint256",
          "name": "pool_id",
          "type": "uint256"
        },
        {
          "internalType": "string[]",
          "name": "match_ids",
          "type": "string[]"
        },
        {
          "internalType": "uint256[]",
          "name": "selections",
          "type": "uint256[]"
        }
      ],
      "name": "placeBets",
      "outputs": [],
      "stateMutability": "payable",
      "type": "function"
    },
    {
      "inputs": [
        {
          "internalType": "uint256",
          "name": "",
          "type": "uint256"
        },
        {
          "internalType": "address",
          "name": "",
          "type": "address"
        }
      ],
      "name": "poolBetByUser",
      "outputs": [
        {
          "internalType": "uint256",
          "name": "poolID",
          "type": "uint256"
        },
        {
          "internalType": "address",
          "name": "user",
          "type": "address"
        },
        {
          "internalType": "uint256",
          "name": "selectionID",
          "type": "uint256"
        },
        {
          "internalType": "bool",
          "name": "isActive",
          "type": "bool"
        },
        {
          "internalType": "uint256",
          "name": "score",
          "type": "uint256"
        }
      ],
      "stateMutability": "view",
      "type": "function"
    },
    {
      "inputs": [
        {
          "internalType": "uint256",
          "name": "",
          "type": "uint256"
        }
      ],
      "name": "poolBetCount",
      "outputs": [
        {
          "internalType": "uint256",
          "name": "",
          "type": "uint256"
        }
      ],
      "stateMutability": "view",
      "type": "function"
    },
    {
      "inputs": [
        {
          "internalType": "uint256",
          "name": "",
          "type": "uint256"
        },
        {
          "internalType": "string",
          "name": "",
          "type": "string"
        }
      ],
      "name": "poolSelections",
      "outputs": [
        {
          "internalType": "uint256",
          "name": "",
          "type": "uint256"
        }
      ],
      "stateMutability": "view",
      "type": "function"
    },
    {
      "inputs": [
        {
          "internalType": "uint256",
          "name": "",
          "type": "uint256"
        },
        {
          "internalType": "uint256",
          "name": "",
          "type": "uint256"
        }
      ],
      "name": "poolToAddress",
      "outputs": [
        {
          "internalType": "address",
          "name": "",
          "type": "address"
        }
      ],
      "stateMutability": "view",
      "type": "function"
    },
    {
      "inputs": [
        {
          "internalType": "uint256",
          "name": "",
          "type": "uint256"
        },
        {
          "internalType": "uint256",
          "name": "",
          "type": "uint256"
        },
        {
          "internalType": "uint256",
          "name": "",
          "type": "uint256"
        }
      ],
      "name": "poolToScoreToAdddress",
      "outputs": [
        {
          "internalType": "address",
          "name": "",
          "type": "address"
        }
      ],
      "stateMutability": "view",
      "type": "function"
    },
    {
      "inputs": [],
      "name": "protocolFeeCollector",
      "outputs": [
        {
          "internalType": "address",
          "name": "",
          "type": "address"
        }
      ],
      "stateMutability": "view",
      "type": "function"
    },
    {
      "inputs": [],
      "name": "renounceOwnership",
      "outputs": [],
      "stateMutability": "nonpayable",
      "type": "function"
    },
    {
      "inputs": [
        {
          "internalType": "address",
          "name": "admin",
          "type": "address"
        },
        {
          "internalType": "bool",
          "name": "enabled",
          "type": "bool"
        }
      ],
      "name": "setAdmin",
      "outputs": [],
      "stateMutability": "nonpayable",
      "type": "function"
    },
    {
      "inputs": [
        {
          "internalType": "address",
          "name": "newOwner",
          "type": "address"
        }
      ],
      "name": "transferOwnership",
      "outputs": [],
      "stateMutability": "nonpayable",
      "type": "function"
    },
    {
      "inputs": [
        {
          "internalType": "string",
          "name": "matchID",
          "type": "string"
        },
        {
          "internalType": "uint256",
          "name": "statusCode",
          "type": "uint256"
        }
      ],
      "name": "updateMatchStatus",
      "outputs": [],
      "stateMutability": "nonpayable",
      "type": "function"
    },
    {
      "inputs": [
        {
          "internalType": "uint256",
          "name": "poolID",
          "type": "uint256"
        },
        {
          "internalType": "string",
          "name": "_poolName",
          "type": "string"
        },
        {
          "internalType": "uint256",
          "name": "_entryFee",
          "type": "uint256"
        },
        {
          "internalType": "uint256",
          "name": "_protocolFee",
          "type": "uint256"
        }
      ],
      "name": "updatePool",
      "outputs": [],
      "stateMutability": "nonpayable",
      "type": "function"
    },
    {
      "inputs": [],
      "name": "withdrawProtocolFee",
      "outputs": [],
      "stateMutability": "nonpayable",
      "type": "function"
    },
    {
      "stateMutability": "payable",
      "type": "receive"
    }
  ],
  "bytecode": "0x60806040523480156200001157600080fd5b506040516200611b3803806200611b8339818101604052810190620000379190620002a6565b620000576200004b6200012b60201b60201c565b6200013360201b60201c565b600160028190555082600360006101000a81548173ffffffffffffffffffffffffffffffffffffffff021916908373ffffffffffffffffffffffffffffffffffffffff16021790555081600460006101000a81548173ffffffffffffffffffffffffffffffffffffffff021916908373ffffffffffffffffffffffffffffffffffffffff16021790555080600560006101000a81548173ffffffffffffffffffffffffffffffffffffffff021916908373ffffffffffffffffffffffffffffffffffffffff16021790555050505062000302565b600033905090565b60008060009054906101000a900473ffffffffffffffffffffffffffffffffffffffff169050816000806101000a81548173ffffffffffffffffffffffffffffffffffffffff021916908373ffffffffffffffffffffffffffffffffffffffff1602179055508173ffffffffffffffffffffffffffffffffffffffff168173ffffffffffffffffffffffffffffffffffffffff167f8be0079c531659141344cd1fd0a4f28419497f9722a3daafe3b4186f6b6457e060405160405180910390a35050565b600080fd5b600073ffffffffffffffffffffffffffffffffffffffff82169050919050565b60006200022982620001fc565b9050919050565b60006200023d826200021c565b9050919050565b6200024f8162000230565b81146200025b57600080fd5b50565b6000815190506200026f8162000244565b92915050565b62000280816200021c565b81146200028c57600080fd5b50565b600081519050620002a08162000275565b92915050565b600080600060608486031215620002c257620002c1620001f7565b5b6000620002d2868287016200025e565b9350506020620002e5868287016200028f565b9250506040620002f8868287016200028f565b9150509250925092565b615e0980620003126000396000f3fe6080604052600436106101f25760003560e01c806389c51de11161010d578063b9cb7b15116100a0578063d2d7231f1161006f578063d2d7231f14610768578063d613c0f814610791578063db2e21bc146107ce578063e896b8da146107e5578063f2fde38b1461080e576101f9565b8063b9cb7b1514610670578063ba37c1da146106ad578063c3660039146106ea578063d18d7ed11461072b576101f9565b8063a5e2dd7e116100dc578063a5e2dd7e146105c5578063aa32eac414610602578063ae169a501461062b578063b2e51d5814610654576101f9565b806389c51de1146105055780638afffe3f1461052e5780638da5cb5b1461056f578063a28e3bf81461059a576101f9565b80635bc0552611610185578063715018a611610154578063715018a61461045d57806371942ff41461047457806374eaf8471461049d578063850a1501146104da576101f9565b80635bc055261461037b5780635e5908cd146103a657806368a53439146103e35780636ac071c414610420576101f9565b8063357401f5116101c1578063357401f5146102cc57806341d1de97146102f55780634b0bddd21461033b57806359d8da9214610364576101f9565b80630f74459f146101fe57806324d7806c1461022957806334b9b8221461026657806334ca4759146102a3576101f9565b366101f957005b600080fd5b34801561020a57600080fd5b50610213610837565b6040516102209190614072565b60405180910390f35b34801561023557600080fd5b50610250600480360381019061024b91906140df565b61085d565b60405161025d9190614127565b60405180910390f35b34801561027257600080fd5b5061028d600480360381019061028891906143a4565b6108b3565b60405161029a91906144a1565b60405180910390f35b3480156102af57600080fd5b506102ca60048036038101906102c591906144bc565b610c93565b005b3480156102d857600080fd5b506102f360048036038101906102ee919061453f565b611071565b005b34801561030157600080fd5b5061031c6004803603810190610317919061453f565b611315565b6040516103329a999897969594939291906145f4565b60405180910390f35b34801561034757600080fd5b50610362600480360381019061035d91906146c3565b61140b565b005b34801561037057600080fd5b506103796114a7565b005b34801561038757600080fd5b50610390611665565b60405161039d9190614712565b60405180910390f35b3480156103b257600080fd5b506103cd60048036038101906103c8919061472d565b61168b565b6040516103da9190614127565b60405180910390f35b3480156103ef57600080fd5b5061040a6004803603810190610405919061476d565b6116ba565b6040516104179190614712565b60405180910390f35b34801561042c57600080fd5b506104476004803603810190610442919061472d565b611715565b60405161045491906144a1565b60405180910390f35b34801561046957600080fd5b5061047261173a565b005b34801561048057600080fd5b5061049b600480360381019061049691906147c0565b61174e565b005b3480156104a957600080fd5b506104c460048036038101906104bf919061481c565b6118fb565b6040516104d19190614127565b60405180910390f35b3480156104e657600080fd5b506104ef611931565b6040516104fc9190614712565b60405180910390f35b34801561051157600080fd5b5061052c6004803603810190610527919061453f565b611957565b005b34801561053a57600080fd5b506105556004803603810190610550919061481c565b611a28565b6040516105669594939291906148dc565b60405180910390f35b34801561057b57600080fd5b50610584611ca1565b6040516105919190614712565b60405180910390f35b3480156105a657600080fd5b506105af611cca565b6040516105bc91906144a1565b60405180910390f35b3480156105d157600080fd5b506105ec60048036038101906105e7919061494b565b611cd6565b6040516105f99190614712565b60405180910390f35b34801561060e57600080fd5b50610629600480360381019061062491906140df565b611d24565b005b34801561063757600080fd5b50610652600480360381019061064d919061453f565b611e3f565b005b61066e60048036038101906106699190614a4e565b6120e1565b005b34801561067c57600080fd5b506106976004803603810190610692919061453f565b6127ba565b6040516106a491906144a1565b60405180910390f35b3480156106b957600080fd5b506106d460048036038101906106cf91906147c0565b6127d2565b6040516106e19190614127565b60405180910390f35b3480156106f657600080fd5b50610711600480360381019061070c9190614ad9565b612817565b604051610722959493929190614b19565b60405180910390f35b34801561073757600080fd5b50610752600480360381019061074d9190614b6c565b612887565b60405161075f91906144a1565b60405180910390f35b34801561077457600080fd5b5061078f600480360381019061078a919061453f565b6128c2565b005b34801561079d57600080fd5b506107b860048036038101906107b3919061472d565b61314f565b6040516107c59190614127565b60405180910390f35b3480156107da57600080fd5b506107e361317e565b005b3480156107f157600080fd5b5061080c60048036038101906108079190614bc8565b613399565b005b34801561081a57600080fd5b50610835600480360381019061083091906140df565b6136d4565b005b600360009054906101000a900473ffffffffffffffffffffffffffffffffffffffff1681565b6000600160008373ffffffffffffffffffffffffffffffffffffffff1673ffffffffffffffffffffffffffffffffffffffff16815260200190815260200160002060009054906101000a900460ff169050919050565b60006108bd613758565b600160006108c96137a6565b73ffffffffffffffffffffffffffffffffffffffff1673ffffffffffffffffffffffffffffffffffffffff16815260200190815260200160002060009054906101000a900460ff1680610955575061091f611ca1565b73ffffffffffffffffffffffffffffffffffffffff1661093d6137a6565b73ffffffffffffffffffffffffffffffffffffffff16145b610994576040517f08c379a000000000000000000000000000000000000000000000000000000000815260040161098b90614d11565b60405180910390fd5b61099e60066137ae565b8585116109e0576040517f08c379a00000000000000000000000000000000000000000000000000000000081526004016109d790614da3565b60405180910390fd5b60005b8451811015610aef576008858281518110610a0157610a00614dc3565b5b6020026020010151604051610a169190614e2e565b908152602001604051809103902060009054906101000a900460ff16610a71576040517f08c379a0000000000000000000000000000000000000000000000000000000008152600401610a6890614eb7565b60405180910390fd5b6001600b868381518110610a8857610a87614dc3565b5b6020026020010151604051610a9d9190614e2e565b90815260200160405180910390206000610ab760066137c4565b815260200190815260200160002060006101000a81548160ff0219169083151502179055508080610ae790614f06565b9150506109e3565b50604051806101600160405280610b0660066137c4565b81526020018a815260200185815260200187815260200186815260200189815260200188815260200183815260200184815260200160001515815260200160001515815250600a6000610b5960066137c4565b8152602001908152602001600020600082015181600001556020820151816001019080519060200190610b8d929190613e8c565b506040820151816002019080519060200190610baa929190613f12565b50606082015181600301556080820151816004015560a0820151816005015560c0820151816006015560e0820151816007015561010082015181600801556101208201518160090160006101000a81548160ff0219169083151502179055506101408201518160090160016101000a81548160ff021916908315150217905550905050818451610c3a60066137c4565b7fdbff310385a5a234481df722c49003c9444cfc7de75cae0817453c73afdf26628989604051610c6b929190614f4f565b60405180910390a4610c7d60066137c4565b9050610c876137d2565b98975050505050505050565b610c9b613758565b83600a6000828152602001908152602001600020600301544210610cf4576040517f08c379a0000000000000000000000000000000000000000000000000000000008152600401610ceb90614fc4565b60405180910390fd5b8460001515600a600083815260200190815260200160002060090160009054906101000a900460ff16151514610d5f576040517f08c379a0000000000000000000000000000000000000000000000000000000008152600401610d5690615030565b60405180910390fd5b6000600a60008881526020019081526020016000206040518061016001604052908160008201548152602001600182018054610d9a9061507f565b80601f0160208091040260200160405190810160405280929190818152602001828054610dc69061507f565b8015610e135780601f10610de857610100808354040283529160200191610e13565b820191906000526020600020905b815481529060010190602001808311610df657829003601f168201915b5050505050815260200160028201805480602002602001604051908101604052809291908181526020016000905b82821015610eed578382906000526020600020018054610e609061507f565b80601f0160208091040260200160405190810160405280929190818152602001828054610e8c9061507f565b8015610ed95780601f10610eae57610100808354040283529160200191610ed9565b820191906000526020600020905b815481529060010190602001808311610ebc57829003601f168201915b505050505081526020019060010190610e41565b5050505081526020016003820154815260200160048201548152602001600582015481526020016006820154815260200160078201548152602001600882015481526020016009820160009054906101000a900460ff161515151581526020016009820160019054906101000a900460ff1615151515815250509050858160200181905250848160a0018181525050838160c001818152505080600a6000898152602001908152602001600020600082015181600001556020820151816001019080519060200190610fc0929190613e8c565b506040820151816002019080519060200190610fdd929190613f12565b50606082015181600301556080820151816004015560a0820151816005015560c0820151816006015560e0820151816007015561010082015181600801556101208201518160090160006101000a81548160ff0219169083151502179055506101408201518160090160016101000a81548160ff02191690831515021790555090505050505061106b6137d2565b50505050565b611079613758565b80600a600082815260200190815260200160002060030154421180156110b45750600a60008281526020019081526020016000206004015442105b6110f3576040517f08c379a00000000000000000000000000000000000000000000000000000000081526004016110ea906150fd565b60405180910390fd5b6001600e60003373ffffffffffffffffffffffffffffffffffffffff1673ffffffffffffffffffffffffffffffffffffffff168152602001908152602001600020600084815260200190815260200160002060006101000a81548160ff021916908315150217905561119a576040517f08c379a000000000000000000000000000000000000000000000000000000000815260040161119190615169565b60405180910390fd5b6000600e60003373ffffffffffffffffffffffffffffffffffffffff1673ffffffffffffffffffffffffffffffffffffffff168152602001908152602001600020600084815260200190815260200160002060006101000a81548160ff0219169083151502179055506000600f600084815260200190815260200160002060003373ffffffffffffffffffffffffffffffffffffffff1673ffffffffffffffffffffffffffffffffffffffff16815260200190815260200160002060030160006101000a81548160ff0219169083151502179055506112d233600a600085815260200190815260200160002060050154600360009054906101000a900473ffffffffffffffffffffffffffffffffffffffff1673ffffffffffffffffffffffffffffffffffffffff166137dc9092919063ffffffff16565b6001600c6000848152602001908152602001600020546112f29190615189565b600c600084815260200190815260200160002081905550506113126137d2565b50565b600a60205280600052604060002060009150905080600001549080600101805461133e9061507f565b80601f016020809104026020016040519081016040528092919081815260200182805461136a9061507f565b80156113b75780601f1061138c576101008083540402835291602001916113b7565b820191906000526020600020905b81548152906001019060200180831161139a57829003601f168201915b5050505050908060030154908060040154908060050154908060060154908060070154908060080154908060090160009054906101000a900460ff16908060090160019054906101000a900460ff1690508a565b611413613862565b80600160008473ffffffffffffffffffffffffffffffffffffffff1673ffffffffffffffffffffffffffffffffffffffff16815260200190815260200160002060006101000a81548160ff0219169083151502179055507fe529461c8529abc0e0fe7c5ee361f74fe22e0b7574df1fc0b7558a282091fb78828260405161149b9291906151bd565b60405180910390a15050565b6114af613758565b600160006114bb6137a6565b73ffffffffffffffffffffffffffffffffffffffff1673ffffffffffffffffffffffffffffffffffffffff16815260200190815260200160002060009054906101000a900460ff16806115475750611511611ca1565b73ffffffffffffffffffffffffffffffffffffffff1661152f6137a6565b73ffffffffffffffffffffffffffffffffffffffff16145b611586576040517f08c379a000000000000000000000000000000000000000000000000000000000815260040161157d90614d11565b60405180910390fd5b60004790506000600560009054906101000a900473ffffffffffffffffffffffffffffffffffffffff1673ffffffffffffffffffffffffffffffffffffffff16826040516115d390615217565b60006040518083038185875af1925050503d8060008114611610576040519150601f19603f3d011682016040523d82523d6000602084013e611615565b606091505b5050905080611659576040517f08c379a000000000000000000000000000000000000000000000000000000000815260040161165090615278565b60405180910390fd5b50506116636137d2565b565b600460009054906101000a900473ffffffffffffffffffffffffffffffffffffffff1681565b600e6020528160005260406000206020528060005260406000206000915091509054906101000a900460ff1681565b601160205282600052604060002060205281600052604060002081815481106116e257600080fd5b90600052602060002001600092509250509054906101000a900473ffffffffffffffffffffffffffffffffffffffff1681565b6012602052816000526040600020602052806000526040600020600091509150505481565b611742613862565b61174c60006138e0565b565b611756613758565b600460009054906101000a900473ffffffffffffffffffffffffffffffffffffffff1673ffffffffffffffffffffffffffffffffffffffff163373ffffffffffffffffffffffffffffffffffffffff1614806117b757506117b63361085d565b5b6117f6576040517f08c379a00000000000000000000000000000000000000000000000000000000081526004016117ed9061530a565b60405180910390fd5b600481111561183a576040517f08c379a000000000000000000000000000000000000000000000000000000000815260040161183190615376565b60405180910390fd5b80600481111561184d5761184c614865565b5b60098360405161185d9190614e2e565b908152602001604051809103902060040160006101000a81548160ff021916908360048111156118905761188f614865565b5b02179055503373ffffffffffffffffffffffffffffffffffffffff1681836040516118bb9190614e2e565b60405180910390207f2d63af5347afa116d9f42c28a666b76a295a2b2f20b1b888cc009d157eada66f60405160405180910390a46118f76137d2565b5050565b6008818051602081018201805184825260208301602085012081835280955050505050506000915054906101000a900460ff1681565b600560009054906101000a900473ffffffffffffffffffffffffffffffffffffffff1681565b61195f613758565b806000600c600083815260200190815260200160002054146119b6576040517f08c379a00000000000000000000000000000000000000000000000000000000081526004016119ad90615408565b60405180910390fd5b6001600a600084815260200190815260200160002060090160006101000a81548160ff0219169083151502179055507f9dce5fae1bfc452744b9b04bec500982e631b636ca4305841535782d93ccc24582604051611a1491906144a1565b60405180910390a150611a256137d2565b50565b600981805160208101820180518482526020830160208501208183528095505050505050600091509050806000018054611a619061507f565b80601f0160208091040260200160405190810160405280929190818152602001828054611a8d9061507f565b8015611ada5780601f10611aaf57610100808354040283529160200191611ada565b820191906000526020600020905b815481529060010190602001808311611abd57829003601f168201915b505050505090806001018054611aef9061507f565b80601f0160208091040260200160405190810160405280929190818152602001828054611b1b9061507f565b8015611b685780601f10611b3d57610100808354040283529160200191611b68565b820191906000526020600020905b815481529060010190602001808311611b4b57829003601f168201915b505050505090806002018054611b7d9061507f565b80601f0160208091040260200160405190810160405280929190818152602001828054611ba99061507f565b8015611bf65780601f10611bcb57610100808354040283529160200191611bf6565b820191906000526020600020905b815481529060010190602001808311611bd957829003601f168201915b505050505090806003018054611c0b9061507f565b80601f0160208091040260200160405190810160405280929190818152602001828054611c379061507f565b8015611c845780601f10611c5957610100808354040283529160200191611c84565b820191906000526020600020905b815481529060010190602001808311611c6757829003601f168201915b5050505050908060040160009054906101000a900460ff16905085565b60008060009054906101000a900473ffffffffffffffffffffffffffffffffffffffff16905090565b60078060000154905081565b600d6020528160005260406000208181548110611cf257600080fd5b906000526020600020016000915091509054906101000a900473ffffffffffffffffffffffffffffffffffffffff1681565b60016000611d306137a6565b73ffffffffffffffffffffffffffffffffffffffff1673ffffffffffffffffffffffffffffffffffffffff16815260200190815260200160002060009054906101000a900460ff1680611dbc5750611d86611ca1565b73ffffffffffffffffffffffffffffffffffffffff16611da46137a6565b73ffffffffffffffffffffffffffffffffffffffff16145b611dfb576040517f08c379a0000000000000000000000000000000000000000000000000000000008152600401611df290614d11565b60405180910390fd5b80600460006101000a81548173ffffffffffffffffffffffffffffffffffffffff021916908373ffffffffffffffffffffffffffffffffffffffff16021790555050565b611e47613758565b611e5160066137c4565b811115611e93576040517f08c379a0000000000000000000000000000000000000000000000000000000008152600401611e8a90615474565b60405180910390fd5b6000601260003373ffffffffffffffffffffffffffffffffffffffff1673ffffffffffffffffffffffffffffffffffffffff168152602001908152602001600020600083815260200190815260200160002054905060008111611f2b576040517f08c379a0000000000000000000000000000000000000000000000000000000008152600401611f2290615506565b60405180910390fd5b60001515601360003373ffffffffffffffffffffffffffffffffffffffff1673ffffffffffffffffffffffffffffffffffffffff168152602001908152602001600020600084815260200190815260200160002060009054906101000a900460ff16151514611fcf576040517f08c379a0000000000000000000000000000000000000000000000000000000008152600401611fc690615598565b60405180910390fd5b61201c3382600360009054906101000a900473ffffffffffffffffffffffffffffffffffffffff1673ffffffffffffffffffffffffffffffffffffffff166137dc9092919063ffffffff16565b6001601360003373ffffffffffffffffffffffffffffffffffffffff1673ffffffffffffffffffffffffffffffffffffffff168152602001908152602001600020600084815260200190815260200160002060006101000a81548160ff0219169083151502179055503373ffffffffffffffffffffffffffffffffffffffff167f1284bc0a7616f127f3f049bad1bb6af81121fa6cb9ac68ff5d5d7edf854a1b9883836040516120cd929190614f4f565b60405180910390a2506120de6137d2565b50565b6120e9613758565b8260001515600a600083815260200190815260200160002060090160009054906101000a900460ff16151514612154576040517f08c379a000000000000000000000000000000000000000000000000000000000815260040161214b90615030565b60405180910390fd5b83600a6000828152602001908152602001600020600301544211801561218f5750600a60008281526020019081526020016000206004015442105b6121ce576040517f08c379a00000000000000000000000000000000000000000000000000000000081526004016121c5906150fd565b60405180910390fd5b6121d860066137c4565b85111561221a576040517f08c379a000000000000000000000000000000000000000000000000000000000815260040161221190615474565b60405180910390fd5b825184511461225e576040517f08c379a000000000000000000000000000000000000000000000000000000000815260040161225590615604565b60405180910390fd5b60001515600e60003373ffffffffffffffffffffffffffffffffffffffff1673ffffffffffffffffffffffffffffffffffffffff168152602001908152602001600020600087815260200190815260200160002060009054906101000a900460ff16151514612302576040517f08c379a00000000000000000000000000000000000000000000000000000000081526004016122f990615696565b60405180910390fd5b600a600086815260200190815260200160002060060154341461235a576040517f08c379a000000000000000000000000000000000000000000000000000000000815260040161235190615728565b60405180910390fd5b600061236660076137c4565b905060006040518060a001604052808881526020013373ffffffffffffffffffffffffffffffffffffffff1681526020018381526020016001151581526020016000815250905060005b865181101561254c57600b8782815181106123ce576123cd614dc3565b5b60200260200101516040516123e39190614e2e565b9081526020016040518091039020600089815260200190815260200160002060009054906101000a900460ff1661244f576040517f08c379a0000000000000000000000000000000000000000000000000000000008152600401612446906157ba565b60405180910390fd5b600086828151811061246457612463614dc3565b5b602002602001015114806124925750600186828151811061248857612487614dc3565b5b6020026020010151145b6124d1576040517f08c379a00000000000000000000000000000000000000000000000000000000081526004016124c890615826565b60405180910390fd5b8581815181106124e4576124e3614dc3565b5b60200260200101516010600085815260200190815260200160002088838151811061251257612511614dc3565b5b60200260200101516040516125279190614e2e565b908152602001604051809103902081905550808061254490614f06565b9150506123b0565b5080600f600089815260200190815260200160002060003373ffffffffffffffffffffffffffffffffffffffff1673ffffffffffffffffffffffffffffffffffffffff1681526020019081526020016000206000820151816000015560208201518160010160006101000a81548173ffffffffffffffffffffffffffffffffffffffff021916908373ffffffffffffffffffffffffffffffffffffffff1602179055506040820151816002015560608201518160030160006101000a81548160ff02191690831515021790555060808201518160040155905050600d6000888152602001908152602001600020339080600181540180825580915050600190039060005260206000200160009091909190916101000a81548173ffffffffffffffffffffffffffffffffffffffff021916908373ffffffffffffffffffffffffffffffffffffffff1602179055506001600e60003373ffffffffffffffffffffffffffffffffffffffff1673ffffffffffffffffffffffffffffffffffffffff168152602001908152602001600020600089815260200190815260200160002060006101000a81548160ff0219169083151502179055506001600c6000898152602001908152602001600020546127239190615846565b600c60008981526020019081526020016000208190555061279f3330600a60008b815260200190815260200160002060050154600360009054906101000a900473ffffffffffffffffffffffffffffffffffffffff1673ffffffffffffffffffffffffffffffffffffffff166139a4909392919063ffffffff16565b6127a960076137ae565b505050506127b56137d2565b505050565b600c6020528060005260406000206000915090505481565b600b828051602081018201805184825260208301602085012081835280955050505050506020528060005260406000206000915091509054906101000a900460ff1681565b600f602052816000526040600020602052806000526040600020600091509150508060000154908060010160009054906101000a900473ffffffffffffffffffffffffffffffffffffffff16908060020154908060030160009054906101000a900460ff16908060040154905085565b601060205281600052604060002081805160208101820180518482526020830160208501208183528095505050505050600091509150505481565b6128ca613758565b600160006128d66137a6565b73ffffffffffffffffffffffffffffffffffffffff1673ffffffffffffffffffffffffffffffffffffffff16815260200190815260200160002060009054906101000a900460ff1680612962575061292c611ca1565b73ffffffffffffffffffffffffffffffffffffffff1661294a6137a6565b73ffffffffffffffffffffffffffffffffffffffff16145b6129a1576040517f08c379a000000000000000000000000000000000000000000000000000000000815260040161299890614d11565b60405180910390fd5b6129ab60066137c4565b8111156129ed576040517f08c379a00000000000000000000000000000000000000000000000000000000081526004016129e490615474565b60405180910390fd5b6000600d6000838152602001908152602001600020805480602002602001604051908101604052809291908181526020018280548015612a8257602002820191906000526020600020905b8160009054906101000a900473ffffffffffffffffffffffffffffffffffffffff1673ffffffffffffffffffffffffffffffffffffffff1681526020019060010190808311612a38575b505050505090506000600a60008481526020019081526020016000206002018054905090506000600c60008581526020019081526020016000205490506000612afd6064612aef600a60008981526020019081526020016000206007015485613a2d90919063ffffffff16565b613a4390919063ffffffff16565b90506000806103e867ffffffffffffffff811115612b1e57612b1d61415d565b5b604051908082528060200260200182016040528015612b4c5781602001602082028036833780820191505090505b50905060005b8651811015612eeb57600e6000888381518110612b7257612b71614dc3565b5b602002602001015173ffffffffffffffffffffffffffffffffffffffff1673ffffffffffffffffffffffffffffffffffffffff168152602001908152602001600020600089815260200190815260200160002060009054906101000a900460ff168015612c565750600f60008981526020019081526020016000206000888381518110612c0257612c01614dc3565b5b602002602001015173ffffffffffffffffffffffffffffffffffffffff1673ffffffffffffffffffffffffffffffffffffffff16815260200190815260200160002060030160009054906101000a900460ff165b15612ed8576000612e35600f60008b815260200190815260200160002060003373ffffffffffffffffffffffffffffffffffffffff1673ffffffffffffffffffffffffffffffffffffffff1681526020019081526020016000206040518060a0016040529081600082015481526020016001820160009054906101000a900473ffffffffffffffffffffffffffffffffffffffff1673ffffffffffffffffffffffffffffffffffffffff1673ffffffffffffffffffffffffffffffffffffffff168152602001600282015481526020016003820160009054906101000a900460ff16151515158152602001600482015481525050600a60008c8152602001908152602001600020600201805480602002602001604051908101604052809291908181526020016000905b82821015612e2c578382906000526020600020018054612d9f9061507f565b80601f0160208091040260200160405190810160405280929190818152602001828054612dcb9061507f565b8015612e185780601f10612ded57610100808354040283529160200191612e18565b820191906000526020600020905b815481529060010190602001808311612dfb57829003601f168201915b505050505081526020019060010190612d80565b50505050613a59565b9050601160008a81526020019081526020016000206000828152602001908152602001600020888381518110612e6e57612e6d614dc3565b5b60200260200101519080600181540180825580915050600190039060005260206000200160009091909190916101000a81548173ffffffffffffffffffffffffffffffffffffffff021916908373ffffffffffffffffffffffffffffffffffffffff160217905550505b8080612ee390614f06565b915050612b52565b5060008590505b60008110613033576000601160008a81526020019081526020016000206000838152602001908152602001600020805490509050848410156130195760005b8181101561300557601160008b815260200190815260200160002060008481526020019081526020016000208181548110612f6f57612f6e614dc3565b5b9060005260206000200160009054906101000a900473ffffffffffffffffffffffffffffffffffffffff16848287612fa79190615846565b81518110612fb857612fb7614dc3565b5b602002602001019073ffffffffffffffffffffffffffffffffffffffff16908173ffffffffffffffffffffffffffffffffffffffff16815250508080612ffd90614f06565b915050612f31565b5080846130129190615846565b935061301f565b50613033565b50808061302b9061589c565b915050612ef2565b5060005b8281101561310e5761308d8361307f600c60008c815260200190815260200160002054600a60008d815260200190815260200160002060050154613a2d90919063ffffffff16565b613a4390919063ffffffff16565b601260008484815181106130a4576130a3614dc3565b5b602002602001015173ffffffffffffffffffffffffffffffffffffffff1673ffffffffffffffffffffffffffffffffffffffff16815260200190815260200160002060008a815260200190815260200160002081905550808061310690614f06565b915050613037565b506001600a600089815260200190815260200160002060090160016101000a81548160ff02191690831515021790555050505050505061314c6137d2565b50565b60136020528160005260406000206020528060005260406000206000915091509054906101000a900460ff1681565b613186613758565b600160006131926137a6565b73ffffffffffffffffffffffffffffffffffffffff1673ffffffffffffffffffffffffffffffffffffffff16815260200190815260200160002060009054906101000a900460ff168061321e57506131e8611ca1565b73ffffffffffffffffffffffffffffffffffffffff166132066137a6565b73ffffffffffffffffffffffffffffffffffffffff16145b61325d576040517f08c379a000000000000000000000000000000000000000000000000000000000815260040161325490614d11565b60405180910390fd5b6000600360009054906101000a900473ffffffffffffffffffffffffffffffffffffffff1673ffffffffffffffffffffffffffffffffffffffff166370a08231306040518263ffffffff1660e01b81526004016132ba9190614712565b602060405180830381865afa1580156132d7573d6000803e3d6000fd5b505050506040513d601f19601f820116820180604052508101906132fb91906158db565b905061334a3382600360009054906101000a900473ffffffffffffffffffffffffffffffffffffffff1673ffffffffffffffffffffffffffffffffffffffff166137dc9092919063ffffffff16565b803373ffffffffffffffffffffffffffffffffffffffff167f57d9989cf85bcbe79b267935030d7262857ea01d7ef7123745d6e98c27dcc75f60405160405180910390a3506133976137d2565b565b6133a1613758565b600160006133ad6137a6565b73ffffffffffffffffffffffffffffffffffffffff1673ffffffffffffffffffffffffffffffffffffffff16815260200190815260200160002060009054906101000a900460ff16806134395750613403611ca1565b73ffffffffffffffffffffffffffffffffffffffff166134216137a6565b73ffffffffffffffffffffffffffffffffffffffff16145b613478576040517f08c379a000000000000000000000000000000000000000000000000000000000815260040161346f90614d11565b60405180910390fd5b60005b84518110156136c5576040518060a001604052808683815181106134a2576134a1614dc3565b5b602002602001015181526020018583815181106134c2576134c1614dc3565b5b602002602001015181526020018483815181106134e2576134e1614dc3565b5b6020026020010151815260200183838151811061350257613501614dc3565b5b602002602001015181526020016000600481111561352357613522614865565b5b815250600986838151811061353b5761353a614dc3565b5b60200260200101516040516135509190614e2e565b9081526020016040518091039020600082015181600001908051906020019061357a929190613e8c565b506020820151816001019080519060200190613597929190613e8c565b5060408201518160020190805190602001906135b4929190613e8c565b5060608201518160030190805190602001906135d1929190613e8c565b5060808201518160040160006101000a81548160ff021916908360048111156135fd576135fc614865565b5b02179055509050506001600886838151811061361c5761361b614dc3565b5b60200260200101516040516136319190614e2e565b908152602001604051809103902060006101000a81548160ff02191690831515021790555084818151811061366957613668614dc3565b5b602002602001015160405161367e9190614e2e565b60405180910390207f3a1990ba568b52c2b03bed9b883dacc337aece0c185dd7db65a22b1c96fca2cc60405160405180910390a280806136bd90614f06565b91505061347b565b506136ce6137d2565b50505050565b6136dc613862565b600073ffffffffffffffffffffffffffffffffffffffff168173ffffffffffffffffffffffffffffffffffffffff16141561374c576040517f08c379a00000000000000000000000000000000000000000000000000000000081526004016137439061597a565b60405180910390fd5b613755816138e0565b50565b60028054141561379d576040517f08c379a0000000000000000000000000000000000000000000000000000000008152600401613794906159e6565b60405180910390fd5b60028081905550565b600033905090565b6001816000016000828254019250508190555050565b600081600001549050919050565b6001600281905550565b61385d8363a9059cbb60e01b84846040516024016137fb929190615a06565b604051602081830303815290604052907bffffffffffffffffffffffffffffffffffffffffffffffffffffffff19166020820180517bffffffffffffffffffffffffffffffffffffffffffffffffffffffff8381831617835250505050613bf7565b505050565b61386a6137a6565b73ffffffffffffffffffffffffffffffffffffffff16613888611ca1565b73ffffffffffffffffffffffffffffffffffffffff16146138de576040517f08c379a00000000000000000000000000000000000000000000000000000000081526004016138d590615a7b565b60405180910390fd5b565b60008060009054906101000a900473ffffffffffffffffffffffffffffffffffffffff169050816000806101000a81548173ffffffffffffffffffffffffffffffffffffffff021916908373ffffffffffffffffffffffffffffffffffffffff1602179055508173ffffffffffffffffffffffffffffffffffffffff168173ffffffffffffffffffffffffffffffffffffffff167f8be0079c531659141344cd1fd0a4f28419497f9722a3daafe3b4186f6b6457e060405160405180910390a35050565b613a27846323b872dd60e01b8585856040516024016139c593929190615a9b565b604051602081830303815290604052907bffffffffffffffffffffffffffffffffffffffffffffffffffffffff19166020820180517bffffffffffffffffffffffffffffffffffffffffffffffffffffffff8381831617835250505050613bf7565b50505050565b60008183613a3b9190615ad2565b905092915050565b60008183613a519190615b5b565b905092915050565b6000806000905060008460400151905060005b8451811015613beb57600060106000848152602001908152602001600020868381518110613a9d57613a9c614dc3565b5b6020026020010151604051613ab29190614e2e565b9081526020016040518091039020549050600081148015613b3f575060016004811115613ae257613ae1614865565b5b6009878481518110613af757613af6614dc3565b5b6020026020010151604051613b0c9190614e2e565b908152602001604051809103902060040160009054906101000a900460ff166004811115613b3d57613b3c614865565b5b145b80613bc25750600181148015613bc1575060026004811115613b6457613b63614865565b5b6009878481518110613b7957613b78614dc3565b5b6020026020010151604051613b8e9190614e2e565b908152602001604051809103902060040160009054906101000a900460ff166004811115613bbf57613bbe614865565b5b145b5b15613bd757600184613bd49190615846565b93505b508080613be390614f06565b915050613a6c565b50819250505092915050565b6000613c59826040518060400160405280602081526020017f5361666545524332303a206c6f772d6c6576656c2063616c6c206661696c65648152508573ffffffffffffffffffffffffffffffffffffffff16613cbe9092919063ffffffff16565b9050600081511115613cb95780806020019051810190613c799190615ba1565b613cb8576040517f08c379a0000000000000000000000000000000000000000000000000000000008152600401613caf90615c40565b60405180910390fd5b5b505050565b6060613ccd8484600085613cd6565b90509392505050565b606082471015613d1b576040517f08c379a0000000000000000000000000000000000000000000000000000000008152600401613d1290615cd2565b60405180910390fd5b6000808673ffffffffffffffffffffffffffffffffffffffff168587604051613d449190615d2e565b60006040518083038185875af1925050503d8060008114613d81576040519150601f19603f3d011682016040523d82523d6000602084013e613d86565b606091505b5091509150613d9787838387613da3565b92505050949350505050565b60608315613e0657600083511415613dfe57613dbe85613e19565b613dfd576040517f08c379a0000000000000000000000000000000000000000000000000000000008152600401613df490615d91565b60405180910390fd5b5b829050613e11565b613e108383613e3c565b5b949350505050565b6000808273ffffffffffffffffffffffffffffffffffffffff163b119050919050565b600082511115613e4f5781518083602001fd5b806040517f08c379a0000000000000000000000000000000000000000000000000000000008152600401613e839190615db1565b60405180910390fd5b828054613e989061507f565b90600052602060002090601f016020900481019282613eba5760008555613f01565b82601f10613ed357805160ff1916838001178555613f01565b82800160010185558215613f01579182015b82811115613f00578251825591602001919060010190613ee5565b5b509050613f0e9190613f72565b5090565b828054828255906000526020600020908101928215613f61579160200282015b82811115613f60578251829080519060200190613f50929190613e8c565b5091602001919060010190613f32565b5b509050613f6e9190613f8f565b5090565b5b80821115613f8b576000816000905550600101613f73565b5090565b5b80821115613faf5760008181613fa69190613fb3565b50600101613f90565b5090565b508054613fbf9061507f565b6000825580601f10613fd15750613ff0565b601f016020900490600052602060002090810190613fef9190613f72565b5b50565b600073ffffffffffffffffffffffffffffffffffffffff82169050919050565b6000819050919050565b600061403861403361402e84613ff3565b614013565b613ff3565b9050919050565b600061404a8261401d565b9050919050565b600061405c8261403f565b9050919050565b61406c81614051565b82525050565b60006020820190506140876000830184614063565b92915050565b6000604051905090565b600080fd5b600080fd5b60006140ac82613ff3565b9050919050565b6140bc816140a1565b81146140c757600080fd5b50565b6000813590506140d9816140b3565b92915050565b6000602082840312156140f5576140f4614097565b5b6000614103848285016140ca565b91505092915050565b60008115159050919050565b6141218161410c565b82525050565b600060208201905061413c6000830184614118565b92915050565b600080fd5b600080fd5b6000601f19601f8301169050919050565b7f4e487b7100000000000000000000000000000000000000000000000000000000600052604160045260246000fd5b6141958261414c565b810181811067ffffffffffffffff821117156141b4576141b361415d565b5b80604052505050565b60006141c761408d565b90506141d3828261418c565b919050565b600067ffffffffffffffff8211156141f3576141f261415d565b5b6141fc8261414c565b9050602081019050919050565b82818337600083830152505050565b600061422b614226846141d8565b6141bd565b90508281526020810184848401111561424757614246614147565b5b614252848285614209565b509392505050565b600082601f83011261426f5761426e614142565b5b813561427f848260208601614218565b91505092915050565b6000819050919050565b61429b81614288565b81146142a657600080fd5b50565b6000813590506142b881614292565b92915050565b600067ffffffffffffffff8211156142d9576142d861415d565b5b602082029050602081019050919050565b600080fd5b60006143026142fd846142be565b6141bd565b90508083825260208201905060208402830185811115614325576143246142ea565b5b835b8181101561436c57803567ffffffffffffffff81111561434a57614349614142565b5b808601614357898261425a565b85526020850194505050602081019050614327565b5050509392505050565b600082601f83011261438b5761438a614142565b5b813561439b8482602086016142ef565b91505092915050565b600080600080600080600080610100898b0312156143c5576143c4614097565b5b600089013567ffffffffffffffff8111156143e3576143e261409c565b5b6143ef8b828c0161425a565b98505060206144008b828c016142a9565b97505060406144118b828c016142a9565b96505060606144228b828c016142a9565b95505060806144338b828c016142a9565b94505060a089013567ffffffffffffffff8111156144545761445361409c565b5b6144608b828c01614376565b93505060c06144718b828c016142a9565b92505060e06144828b828c016142a9565b9150509295985092959890939650565b61449b81614288565b82525050565b60006020820190506144b66000830184614492565b92915050565b600080600080608085870312156144d6576144d5614097565b5b60006144e4878288016142a9565b945050602085013567ffffffffffffffff8111156145055761450461409c565b5b6145118782880161425a565b9350506040614522878288016142a9565b9250506060614533878288016142a9565b91505092959194509250565b60006020828403121561455557614554614097565b5b6000614563848285016142a9565b91505092915050565b600081519050919050565b600082825260208201905092915050565b60005b838110156145a657808201518184015260208101905061458b565b838111156145b5576000848401525b50505050565b60006145c68261456c565b6145d08185614577565b93506145e0818560208601614588565b6145e98161414c565b840191505092915050565b60006101408201905061460a600083018d614492565b818103602083015261461c818c6145bb565b905061462b604083018b614492565b614638606083018a614492565b6146456080830189614492565b61465260a0830188614492565b61465f60c0830187614492565b61466c60e0830186614492565b61467a610100830185614118565b614688610120830184614118565b9b9a5050505050505050505050565b6146a08161410c565b81146146ab57600080fd5b50565b6000813590506146bd81614697565b92915050565b600080604083850312156146da576146d9614097565b5b60006146e8858286016140ca565b92505060206146f9858286016146ae565b9150509250929050565b61470c816140a1565b82525050565b60006020820190506147276000830184614703565b92915050565b6000806040838503121561474457614743614097565b5b6000614752858286016140ca565b9250506020614763858286016142a9565b9150509250929050565b60008060006060848603121561478657614785614097565b5b6000614794868287016142a9565b93505060206147a5868287016142a9565b92505060406147b6868287016142a9565b9150509250925092565b600080604083850312156147d7576147d6614097565b5b600083013567ffffffffffffffff8111156147f5576147f461409c565b5b6148018582860161425a565b9250506020614812858286016142a9565b9150509250929050565b60006020828403121561483257614831614097565b5b600082013567ffffffffffffffff8111156148505761484f61409c565b5b61485c8482850161425a565b91505092915050565b7f4e487b7100000000000000000000000000000000000000000000000000000000600052602160045260246000fd5b600581106148a5576148a4614865565b5b50565b60008190506148b682614894565b919050565b60006148c6826148a8565b9050919050565b6148d6816148bb565b82525050565b600060a08201905081810360008301526148f681886145bb565b9050818103602083015261490a81876145bb565b9050818103604083015261491e81866145bb565b9050818103606083015261493281856145bb565b905061494160808301846148cd565b9695505050505050565b6000806040838503121561496257614961614097565b5b6000614970858286016142a9565b9250506020614981858286016142a9565b9150509250929050565b600067ffffffffffffffff8211156149a6576149a561415d565b5b602082029050602081019050919050565b60006149ca6149c58461498b565b6141bd565b905080838252602082019050602084028301858111156149ed576149ec6142ea565b5b835b81811015614a165780614a0288826142a9565b8452602084019350506020810190506149ef565b5050509392505050565b600082601f830112614a3557614a34614142565b5b8135614a458482602086016149b7565b91505092915050565b600080600060608486031215614a6757614a66614097565b5b6000614a75868287016142a9565b935050602084013567ffffffffffffffff811115614a9657614a9561409c565b5b614aa286828701614376565b925050604084013567ffffffffffffffff811115614ac357614ac261409c565b5b614acf86828701614a20565b9150509250925092565b60008060408385031215614af057614aef614097565b5b6000614afe858286016142a9565b9250506020614b0f858286016140ca565b9150509250929050565b600060a082019050614b2e6000830188614492565b614b3b6020830187614703565b614b486040830186614492565b614b556060830185614118565b614b626080830184614492565b9695505050505050565b60008060408385031215614b8357614b82614097565b5b6000614b91858286016142a9565b925050602083013567ffffffffffffffff811115614bb257614bb161409c565b5b614bbe8582860161425a565b9150509250929050565b60008060008060808587031215614be257614be1614097565b5b600085013567ffffffffffffffff811115614c0057614bff61409c565b5b614c0c87828801614376565b945050602085013567ffffffffffffffff811115614c2d57614c2c61409c565b5b614c3987828801614376565b935050604085013567ffffffffffffffff811115614c5a57614c5961409c565b5b614c6687828801614376565b925050606085013567ffffffffffffffff811115614c8757614c8661409c565b5b614c9387828801614376565b91505092959194509250565b7f43616c6c657220646f6573206e6f7420686176652041646d696e20416363657360008201527f7300000000000000000000000000000000000000000000000000000000000000602082015250565b6000614cfb602183614577565b9150614d0682614c9f565b604082019050919050565b60006020820190508181036000830152614d2a81614cee565b9050919050565b7f42657474696e672073746172742074696d65206973206772656174657220746860008201527f616e20656e642074696d65000000000000000000000000000000000000000000602082015250565b6000614d8d602b83614577565b9150614d9882614d31565b604082019050919050565b60006020820190508181036000830152614dbc81614d80565b9050919050565b7f4e487b7100000000000000000000000000000000000000000000000000000000600052603260045260246000fd5b600081905092915050565b6000614e088261456c565b614e128185614df2565b9350614e22818560208601614588565b80840191505092915050565b6000614e3a8284614dfd565b915081905092915050565b7f4f6e65206f72206d6f7265206d61746368657320646f6573206e6f742065786960008201527f7374000000000000000000000000000000000000000000000000000000000000602082015250565b6000614ea1602283614577565b9150614eac82614e45565b604082019050919050565b60006020820190508181036000830152614ed081614e94565b9050919050565b7f4e487b7100000000000000000000000000000000000000000000000000000000600052601160045260246000fd5b6000614f1182614288565b91507fffffffffffffffffffffffffffffffffffffffffffffffffffffffffffffffff821415614f4457614f43614ed7565b5b600182019050919050565b6000604082019050614f646000830185614492565b614f716020830184614492565b9392505050565b7f506f6f6c2068617320616c726561647920737461727465640000000000000000600082015250565b6000614fae601883614577565b9150614fb982614f78565b602082019050919050565b60006020820190508181036000830152614fdd81614fa1565b9050919050565b7f506f6f6c20697320617263686976656400000000000000000000000000000000600082015250565b600061501a601083614577565b915061502582614fe4565b602082019050919050565b600060208201905081810360008301526150498161500d565b9050919050565b7f4e487b7100000000000000000000000000000000000000000000000000000000600052602260045260246000fd5b6000600282049050600182168061509757607f821691505b602082108114156150ab576150aa615050565b5b50919050565b7f506f6f6c206973206e6f74206163746976650000000000000000000000000000600082015250565b60006150e7601283614577565b91506150f2826150b1565b602082019050919050565b60006020820190508181036000830152615116816150da565b9050919050565b7f5573657220646f6573206e6f74206861766520616e2061637469766520626574600082015250565b6000615153602083614577565b915061515e8261511d565b602082019050919050565b6000602082019050818103600083015261518281615146565b9050919050565b600061519482614288565b915061519f83614288565b9250828210156151b2576151b1614ed7565b5b828203905092915050565b60006040820190506151d26000830185614703565b6151df6020830184614118565b9392505050565b600081905092915050565b50565b60006152016000836151e6565b915061520c826151f1565b600082019050919050565b6000615222826151f4565b9150819050919050565b7f4661696c656420746f2073656e64204d61746963000000000000000000000000600082015250565b6000615262601483614577565b915061526d8261522c565b602082019050919050565b6000602082019050818103600083015261529181615255565b9050919050565b7f43616c6c6572206973206e6569746865722061646d696e206e6f72206772616460008201527f6572000000000000000000000000000000000000000000000000000000000000602082015250565b60006152f4602283614577565b91506152ff82615298565b604082019050919050565b60006020820190508181036000830152615323816152e7565b9050919050565b7f53746174757320436f646520696e76616c696400000000000000000000000000600082015250565b6000615360601383614577565b915061536b8261532a565b602082019050919050565b6000602082019050818103600083015261538f81615353565b9050919050565b7f506f6f6c20616c72656164792068617320616374697665206265747320706c6160008201527f6365640000000000000000000000000000000000000000000000000000000000602082015250565b60006153f2602383614577565b91506153fd82615396565b604082019050919050565b60006020820190508181036000830152615421816153e5565b9050919050565b7f496e76616c696420706f6f6c4944000000000000000000000000000000000000600082015250565b600061545e600e83614577565b915061546982615428565b602082019050919050565b6000602082019050818103600083015261548d81615451565b9050919050565b7f5573657220686173206e6f207265776172647320746f20636c61696d20666f7260008201527f207468697320706f6f6c00000000000000000000000000000000000000000000602082015250565b60006154f0602a83614577565b91506154fb82615494565b604082019050919050565b6000602082019050818103600083015261551f816154e3565b9050919050565b7f596f75206861766520616c726561647920636c61696d6564207468652072657760008201527f6172647320666f72207468697320706f6f6c0000000000000000000000000000602082015250565b6000615582603283614577565b915061558d82615526565b604082019050919050565b600060208201905081810360008301526155b181615575565b9050919050565b7f43616c6c646174612073697a65206d69736d6174636800000000000000000000600082015250565b60006155ee601683614577565b91506155f9826155b8565b602082019050919050565b6000602082019050818103600083015261561d816155e1565b9050919050565b7f5573657220616c7265616479206861732061206c6976652062657420666f722060008201527f7468697320706f6f6c0000000000000000000000000000000000000000000000602082015250565b6000615680602983614577565b915061568b82615624565b604082019050919050565b600060208201905081810360008301526156af81615673565b9050919050565b7f496e73756666696369656e74206d617469632073656e7420746f20746865206360008201527f6f6e747261637400000000000000000000000000000000000000000000000000602082015250565b6000615712602783614577565b915061571d826156b6565b604082019050919050565b6000602082019050818103600083015261574181615705565b9050919050565b7f4f6e65206f6620746865206d617463686573206973206e6f7420696e2074686560008201527f20706f6f6c000000000000000000000000000000000000000000000000000000602082015250565b60006157a4602583614577565b91506157af82615748565b604082019050919050565b600060208201905081810360008301526157d381615797565b9050919050565b7f557365722073656c656374696f6e20697320696e76616c696400000000000000600082015250565b6000615810601983614577565b915061581b826157da565b602082019050919050565b6000602082019050818103600083015261583f81615803565b9050919050565b600061585182614288565b915061585c83614288565b9250827fffffffffffffffffffffffffffffffffffffffffffffffffffffffffffffffff0382111561589157615890614ed7565b5b828201905092915050565b60006158a782614288565b915060008214156158bb576158ba614ed7565b5b600182039050919050565b6000815190506158d581614292565b92915050565b6000602082840312156158f1576158f0614097565b5b60006158ff848285016158c6565b91505092915050565b7f4f776e61626c653a206e6577206f776e657220697320746865207a65726f206160008201527f6464726573730000000000000000000000000000000000000000000000000000602082015250565b6000615964602683614577565b915061596f82615908565b604082019050919050565b6000602082019050818103600083015261599381615957565b9050919050565b7f5265656e7472616e637947756172643a207265656e7472616e742063616c6c00600082015250565b60006159d0601f83614577565b91506159db8261599a565b602082019050919050565b600060208201905081810360008301526159ff816159c3565b9050919050565b6000604082019050615a1b6000830185614703565b615a286020830184614492565b9392505050565b7f4f776e61626c653a2063616c6c6572206973206e6f7420746865206f776e6572600082015250565b6000615a65602083614577565b9150615a7082615a2f565b602082019050919050565b60006020820190508181036000830152615a9481615a58565b9050919050565b6000606082019050615ab06000830186614703565b615abd6020830185614703565b615aca6040830184614492565b949350505050565b6000615add82614288565b9150615ae883614288565b9250817fffffffffffffffffffffffffffffffffffffffffffffffffffffffffffffffff0483118215151615615b2157615b20614ed7565b5b828202905092915050565b7f4e487b7100000000000000000000000000000000000000000000000000000000600052601260045260246000fd5b6000615b6682614288565b9150615b7183614288565b925082615b8157615b80615b2c565b5b828204905092915050565b600081519050615b9b81614697565b92915050565b600060208284031215615bb757615bb6614097565b5b6000615bc584828501615b8c565b91505092915050565b7f5361666545524332303a204552433230206f7065726174696f6e20646964206e60008201527f6f74207375636365656400000000000000000000000000000000000000000000602082015250565b6000615c2a602a83614577565b9150615c3582615bce565b604082019050919050565b60006020820190508181036000830152615c5981615c1d565b9050919050565b7f416464726573733a20696e73756666696369656e742062616c616e636520666f60008201527f722063616c6c0000000000000000000000000000000000000000000000000000602082015250565b6000615cbc602683614577565b9150615cc782615c60565b604082019050919050565b60006020820190508181036000830152615ceb81615caf565b9050919050565b600081519050919050565b6000615d0882615cf2565b615d1281856151e6565b9350615d22818560208601614588565b80840191505092915050565b6000615d3a8284615cfd565b915081905092915050565b7f416464726573733a2063616c6c20746f206e6f6e2d636f6e7472616374000000600082015250565b6000615d7b601d83614577565b9150615d8682615d45565b602082019050919050565b60006020820190508181036000830152615daa81615d6e565b9050919050565b60006020820190508181036000830152615dcb81846145bb565b90509291505056fea264697066735822122072d19e37bab73f193617e356efeaee5fb528af650dcc357b0f558f798b5976e664736f6c634300080b0033",
  "linkReferences": {},
  "deployedLinkReferences": {}
}