{
  "_format": "hh-sol-artifact-1",
  "contractName": "BettingPools",
  "sourceName": "contracts/BettingPools.sol",
  "abi": [
    {
      "inputs": [
        {
          "internalType": "contract IERC20",
          "name": "_bundToken",
          "type": "address"
        },
        {
          "internalType": "address",
          "name": "_grader",
          "type": "address"
        },
        {
          "internalType": "address",
          "name": "_protocolFeeCollector",
          "type": "address"
        }
      ],
      "stateMutability": "nonpayable",
      "type": "constructor"
    },
    {
      "anonymous": false,
      "inputs": [
        {
          "indexed": false,
          "internalType": "address",
          "name": "_admin",
          "type": "address"
        },
        {
          "indexed": false,
          "internalType": "bool",
          "name": "_enabled",
          "type": "bool"
        }
      ],
      "name": "AdminAccessSet",
      "type": "event"
    },
    {
      "anonymous": false,
      "inputs": [
        {
          "indexed": true,
          "internalType": "address",
          "name": "previousOwner",
          "type": "address"
        },
        {
          "indexed": true,
          "internalType": "address",
          "name": "newOwner",
          "type": "address"
        }
      ],
      "name": "OwnershipTransferred",
      "type": "event"
    },
    {
      "anonymous": false,
      "inputs": [
        {
          "indexed": true,
          "internalType": "uint256",
          "name": "poolID",
          "type": "uint256"
        },
        {
          "indexed": true,
          "internalType": "address",
          "name": "better",
          "type": "address"
        },
        {
          "indexed": false,
          "internalType": "uint256[]",
          "name": "selections",
          "type": "uint256[]"
        }
      ],
      "name": "betPlaced",
      "type": "event"
    },
    {
      "anonymous": false,
      "inputs": [
        {
          "indexed": true,
          "internalType": "address",
          "name": "withdrawnTo",
          "type": "address"
        },
        {
          "indexed": true,
          "internalType": "uint256",
          "name": "amount",
          "type": "uint256"
        }
      ],
      "name": "emergencyWithdrawal",
      "type": "event"
    },
    {
      "anonymous": false,
      "inputs": [
        {
          "indexed": true,
          "internalType": "string",
          "name": "espn_id",
          "type": "string"
        }
      ],
      "name": "matchAdded",
      "type": "event"
    },
    {
      "anonymous": false,
      "inputs": [
        {
          "indexed": true,
          "internalType": "string",
          "name": "espn_id",
          "type": "string"
        },
        {
          "indexed": true,
          "internalType": "uint256",
          "name": "statusCode",
          "type": "uint256"
        },
        {
          "indexed": true,
          "internalType": "address",
          "name": "grader",
          "type": "address"
        }
      ],
      "name": "matchGraded",
      "type": "event"
    },
    {
      "anonymous": false,
      "inputs": [
        {
          "indexed": true,
          "internalType": "uint256",
          "name": "poolID",
          "type": "uint256"
        },
        {
          "indexed": true,
          "internalType": "uint256",
          "name": "matchCount",
          "type": "uint256"
        },
        {
          "indexed": true,
          "internalType": "uint256",
          "name": "winPercentage",
          "type": "uint256"
        },
        {
          "indexed": false,
          "internalType": "uint256",
          "name": "start_time",
          "type": "uint256"
        },
        {
          "indexed": false,
          "internalType": "uint256",
          "name": "end_time",
          "type": "uint256"
        }
      ],
      "name": "poolAdded",
      "type": "event"
    },
    {
      "anonymous": false,
      "inputs": [
        {
          "indexed": false,
          "internalType": "uint256",
          "name": "poolID",
          "type": "uint256"
        }
      ],
      "name": "poolArchived",
      "type": "event"
    },
    {
      "anonymous": false,
      "inputs": [
        {
          "indexed": true,
          "internalType": "address",
          "name": "claimer",
          "type": "address"
        },
        {
          "indexed": false,
          "internalType": "uint256",
          "name": "poolID",
          "type": "uint256"
        },
        {
          "indexed": false,
          "internalType": "uint256",
          "name": "amount",
          "type": "uint256"
        }
      ],
      "name": "rewardClaimed",
      "type": "event"
    },
    {
      "inputs": [
        {
          "internalType": "string",
          "name": "pool_name",
          "type": "string"
        },
        {
          "internalType": "uint256",
          "name": "entry_fee",
          "type": "uint256"
        },
        {
          "internalType": "uint256",
          "name": "protocol_fee",
          "type": "uint256"
        },
        {
          "internalType": "uint256",
          "name": "bet_start_time",
          "type": "uint256"
        },
        {
          "internalType": "uint256",
          "name": "bet_end_time",
          "type": "uint256"
        },
        {
          "internalType": "string[]",
          "name": "match_ids",
          "type": "string[]"
        },
        {
          "internalType": "uint256",
          "name": "max_participants",
          "type": "uint256"
        },
        {
          "internalType": "uint256",
          "name": "winnerPercentage",
          "type": "uint256"
        }
      ],
      "name": "addPoolData",
      "outputs": [
        {
          "internalType": "uint256",
          "name": "",
          "type": "uint256"
        }
      ],
      "stateMutability": "nonpayable",
      "type": "function"
    },
    {
      "inputs": [
        {
          "internalType": "address",
          "name": "",
          "type": "address"
        },
        {
          "internalType": "uint256",
          "name": "",
          "type": "uint256"
        }
      ],
      "name": "addressBettingInPool",
      "outputs": [
        {
          "internalType": "bool",
          "name": "",
          "type": "bool"
        }
      ],
      "stateMutability": "view",
      "type": "function"
    },
    {
      "inputs": [
        {
          "internalType": "address",
          "name": "",
          "type": "address"
        },
        {
          "internalType": "uint256",
          "name": "",
          "type": "uint256"
        }
      ],
      "name": "addressPoolRewards",
      "outputs": [
        {
          "internalType": "uint256",
          "name": "",
          "type": "uint256"
        }
      ],
      "stateMutability": "view",
      "type": "function"
    },
    {
      "inputs": [
        {
          "internalType": "string",
          "name": "",
          "type": "string"
        }
      ],
      "name": "allMatches",
      "outputs": [
        {
          "internalType": "string",
          "name": "espn_id",
          "type": "string"
        },
        {
          "internalType": "string",
          "name": "name",
          "type": "string"
        },
        {
          "internalType": "string",
          "name": "teamA",
          "type": "string"
        },
        {
          "internalType": "string",
          "name": "teamB",
          "type": "string"
        },
        {
          "internalType": "enum BettingPools.matchStatus",
          "name": "status",
          "type": "uint8"
        }
      ],
      "stateMutability": "view",
      "type": "function"
    },
    {
      "inputs": [
        {
          "internalType": "uint256",
          "name": "",
          "type": "uint256"
        }
      ],
      "name": "allPools",
      "outputs": [
        {
          "internalType": "uint256",
          "name": "poolID",
          "type": "uint256"
        },
        {
          "internalType": "string",
          "name": "poolName",
          "type": "string"
        },
        {
          "internalType": "uint256",
          "name": "startTime",
          "type": "uint256"
        },
        {
          "internalType": "uint256",
          "name": "endTime",
          "type": "uint256"
        },
        {
          "internalType": "uint256",
          "name": "entryFee",
          "type": "uint256"
        },
        {
          "internalType": "uint256",
          "name": "protocolFee",
          "type": "uint256"
        },
        {
          "internalType": "uint256",
          "name": "winnerPercentage",
          "type": "uint256"
        },
        {
          "internalType": "uint256",
          "name": "maxParticipants",
          "type": "uint256"
        },
        {
          "internalType": "bool",
          "name": "isArchived",
          "type": "bool"
        },
        {
          "internalType": "bool",
          "name": "rewardsCalculated",
          "type": "bool"
        }
      ],
      "stateMutability": "view",
      "type": "function"
    },
    {
      "inputs": [
        {
          "internalType": "uint256",
          "name": "poolId",
          "type": "uint256"
        }
      ],
      "name": "archivePool",
      "outputs": [],
      "stateMutability": "nonpayable",
      "type": "function"
    },
    {
      "inputs": [
        {
          "internalType": "string[]",
          "name": "espn_ids",
          "type": "string[]"
        },
        {
          "internalType": "string[]",
          "name": "match_names",
          "type": "string[]"
        },
        {
          "internalType": "string[]",
          "name": "teamAs",
          "type": "string[]"
        },
        {
          "internalType": "string[]",
          "name": "teamBs",
          "type": "string[]"
        }
      ],
      "name": "batchAddMatches",
      "outputs": [],
      "stateMutability": "nonpayable",
      "type": "function"
    },
    {
      "inputs": [],
      "name": "bund",
      "outputs": [
        {
          "internalType": "contract IERC20",
          "name": "",
          "type": "address"
        }
      ],
      "stateMutability": "view",
      "type": "function"
    },
    {
      "inputs": [
        {
          "internalType": "uint256",
          "name": "pool_id",
          "type": "uint256"
        }
      ],
      "name": "calculateReward",
      "outputs": [],
      "stateMutability": "nonpayable",
      "type": "function"
    },
    {
      "inputs": [
        {
          "internalType": "uint256",
          "name": "pool_id",
          "type": "uint256"
        }
      ],
      "name": "cancelBet",
      "outputs": [],
      "stateMutability": "nonpayable",
      "type": "function"
    },
    {
      "inputs": [
        {
          "internalType": "address",
          "name": "_grader",
          "type": "address"
        }
      ],
      "name": "changeGrader",
      "outputs": [],
      "stateMutability": "nonpayable",
      "type": "function"
    },
    {
      "inputs": [
        {
          "internalType": "uint256",
          "name": "pool_id",
          "type": "uint256"
        }
      ],
      "name": "claimReward",
      "outputs": [],
      "stateMutability": "nonpayable",
      "type": "function"
    },
    {
      "inputs": [],
      "name": "emergencyWithdraw",
      "outputs": [],
      "stateMutability": "nonpayable",
      "type": "function"
    },
    {
      "inputs": [
        {
          "internalType": "uint256",
          "name": "pool_id",
          "type": "uint256"
        }
      ],
      "name": "getPoolMatches",
      "outputs": [
        {
          "internalType": "string[]",
          "name": "",
          "type": "string[]"
        }
      ],
      "stateMutability": "view",
      "type": "function"
    },
    {
      "inputs": [],
      "name": "globalBetsID",
      "outputs": [
        {
          "internalType": "uint256",
          "name": "_value",
          "type": "uint256"
        }
      ],
      "stateMutability": "view",
      "type": "function"
    },
    {
      "inputs": [],
      "name": "grader",
      "outputs": [
        {
          "internalType": "address",
          "name": "",
          "type": "address"
        }
      ],
      "stateMutability": "view",
      "type": "function"
    },
    {
      "inputs": [
        {
          "internalType": "address",
          "name": "",
          "type": "address"
        },
        {
          "internalType": "uint256",
          "name": "",
          "type": "uint256"
        }
      ],
      "name": "hasClaimedRewards",
      "outputs": [
        {
          "internalType": "bool",
          "name": "",
          "type": "bool"
        }
      ],
      "stateMutability": "view",
      "type": "function"
    },
    {
      "inputs": [
        {
          "internalType": "address",
          "name": "admin",
          "type": "address"
        }
      ],
      "name": "isAdmin",
      "outputs": [
        {
          "internalType": "bool",
          "name": "",
          "type": "bool"
        }
      ],
      "stateMutability": "view",
      "type": "function"
    },
    {
      "inputs": [
        {
          "internalType": "string",
          "name": "",
          "type": "string"
        },
        {
          "internalType": "uint256",
          "name": "",
          "type": "uint256"
        }
      ],
      "name": "isMatchInPool",
      "outputs": [
        {
          "internalType": "bool",
          "name": "",
          "type": "bool"
        }
      ],
      "stateMutability": "view",
      "type": "function"
    },
    {
      "inputs": [
        {
          "internalType": "string",
          "name": "",
          "type": "string"
        }
      ],
      "name": "matchExists",
      "outputs": [
        {
          "internalType": "bool",
          "name": "",
          "type": "bool"
        }
      ],
      "stateMutability": "view",
      "type": "function"
    },
    {
      "inputs": [],
      "name": "owner",
      "outputs": [
        {
          "internalType": "address",
          "name": "",
          "type": "address"
        }
      ],
      "stateMutability": "view",
      "type": "function"
    },
    {
      "inputs": [
        {
          "internalType": "uint256",
          "name": "pool_id",
          "type": "uint256"
        },
        {
          "internalType": "string[]",
          "name": "match_ids",
          "type": "string[]"
        },
        {
          "internalType": "uint256[]",
          "name": "selections",
          "type": "uint256[]"
        }
      ],
      "name": "placeBets",
      "outputs": [],
      "stateMutability": "payable",
      "type": "function"
    },
    {
      "inputs": [
        {
          "internalType": "uint256",
          "name": "",
          "type": "uint256"
        },
        {
          "internalType": "address",
          "name": "",
          "type": "address"
        }
      ],
      "name": "poolBetByUser",
      "outputs": [
        {
          "internalType": "uint256",
          "name": "poolID",
          "type": "uint256"
        },
        {
          "internalType": "address",
          "name": "user",
          "type": "address"
        },
        {
          "internalType": "uint256",
          "name": "selectionID",
          "type": "uint256"
        },
        {
          "internalType": "bool",
          "name": "isActive",
          "type": "bool"
        },
        {
          "internalType": "uint256",
          "name": "score",
          "type": "uint256"
        }
      ],
      "stateMutability": "view",
      "type": "function"
    },
    {
      "inputs": [
        {
          "internalType": "uint256",
          "name": "",
          "type": "uint256"
        }
      ],
      "name": "poolBetCount",
      "outputs": [
        {
          "internalType": "uint256",
          "name": "",
          "type": "uint256"
        }
      ],
      "stateMutability": "view",
      "type": "function"
    },
    {
      "inputs": [
        {
          "internalType": "uint256",
          "name": "",
          "type": "uint256"
        },
        {
          "internalType": "string",
          "name": "",
          "type": "string"
        }
      ],
      "name": "poolSelections",
      "outputs": [
        {
          "internalType": "uint256",
          "name": "",
          "type": "uint256"
        }
      ],
      "stateMutability": "view",
      "type": "function"
    },
    {
      "inputs": [
        {
          "internalType": "uint256",
          "name": "",
          "type": "uint256"
        },
        {
          "internalType": "uint256",
          "name": "",
          "type": "uint256"
        }
      ],
      "name": "poolToAddress",
      "outputs": [
        {
          "internalType": "address",
          "name": "",
          "type": "address"
        }
      ],
      "stateMutability": "view",
      "type": "function"
    },
    {
      "inputs": [
        {
          "internalType": "uint256",
          "name": "",
          "type": "uint256"
        },
        {
          "internalType": "uint256",
          "name": "",
          "type": "uint256"
        },
        {
          "internalType": "uint256",
          "name": "",
          "type": "uint256"
        }
      ],
      "name": "poolToScoreToAdddress",
      "outputs": [
        {
          "internalType": "address",
          "name": "",
          "type": "address"
        }
      ],
      "stateMutability": "view",
      "type": "function"
    },
    {
      "inputs": [],
      "name": "protocolFeeCollector",
      "outputs": [
        {
          "internalType": "address",
          "name": "",
          "type": "address"
        }
      ],
      "stateMutability": "view",
      "type": "function"
    },
    {
      "inputs": [],
      "name": "renounceOwnership",
      "outputs": [],
      "stateMutability": "nonpayable",
      "type": "function"
    },
    {
      "inputs": [
        {
          "internalType": "address",
          "name": "admin",
          "type": "address"
        },
        {
          "internalType": "bool",
          "name": "enabled",
          "type": "bool"
        }
      ],
      "name": "setAdmin",
      "outputs": [],
      "stateMutability": "nonpayable",
      "type": "function"
    },
    {
      "inputs": [
        {
          "internalType": "address",
          "name": "newOwner",
          "type": "address"
        }
      ],
      "name": "transferOwnership",
      "outputs": [],
      "stateMutability": "nonpayable",
      "type": "function"
    },
    {
      "inputs": [
        {
          "internalType": "string",
          "name": "matchID",
          "type": "string"
        },
        {
          "internalType": "uint256",
          "name": "statusCode",
          "type": "uint256"
        }
      ],
      "name": "updateMatchStatus",
      "outputs": [],
      "stateMutability": "nonpayable",
      "type": "function"
    },
    {
      "inputs": [
        {
          "internalType": "uint256",
          "name": "poolID",
          "type": "uint256"
        },
        {
          "internalType": "string",
          "name": "_poolName",
          "type": "string"
        },
        {
          "internalType": "uint256",
          "name": "_entryFee",
          "type": "uint256"
        },
        {
          "internalType": "uint256",
          "name": "_protocolFee",
          "type": "uint256"
        }
      ],
      "name": "updatePool",
      "outputs": [],
      "stateMutability": "nonpayable",
      "type": "function"
    },
    {
      "inputs": [],
      "name": "withdrawProtocolFee",
      "outputs": [],
      "stateMutability": "nonpayable",
      "type": "function"
    },
    {
      "stateMutability": "payable",
      "type": "receive"
    }
  ],
  "bytecode": "0x60806040523480156200001157600080fd5b5060405162003af138038062003af18339810160408190526200003491620000f0565b6200003f3362000087565b6001600255600380546001600160a01b039485166001600160a01b03199182161790915560048054938516938216939093179092556005805491909316911617905562000144565b600080546001600160a01b038381166001600160a01b0319831681178455604051919092169283917f8be0079c531659141344cd1fd0a4f28419497f9722a3daafe3b4186f6b6457e09190a35050565b6001600160a01b0381168114620000ed57600080fd5b50565b6000806000606084860312156200010657600080fd5b83516200011381620000d7565b60208501519093506200012681620000d7565b60408501519092506200013981620000d7565b809150509250925092565b61399d80620001546000396000f3fe6080604052600436106101fd5760003560e01c80638afffe3f1161010d578063ba37c1da116100a0578063d613c0f81161006f578063d613c0f81461071b578063db2e21bc14610756578063e896b8da1461076b578063f2fde38b1461078b578063fc6ec276146107ab57600080fd5b8063ba37c1da146105d3578063c36600391461061e578063d18d7ed1146106b2578063d2d7231f146106fb57600080fd5b8063aa32eac4116100dc578063aa32eac414610553578063ae169a5014610573578063b2e51d5814610593578063b9cb7b15146105a657600080fd5b80638afffe3f146104cd5780638da5cb5b146104fe578063a28e3bf81461051c578063a5e2dd7e1461053357600080fd5b80635bc0552611610190578063715018a61161015f578063715018a61461041d57806371942ff41461043257806374eaf84714610452578063850a15011461048d57806389c51de1146104ad57600080fd5b80635bc055261461036a5780635e5908cd1461038a57806368a53439146103c55780636ac071c4146103e557600080fd5b8063357401f5116101cc578063357401f5146102df57806341d1de97146102ff5780634b0bddd21461033557806359d8da921461035557600080fd5b80630f74459f1461020957806324d7806c1461024657806334b9b8221461028f57806334ca4759146102bd57600080fd5b3661020457005b600080fd5b34801561021557600080fd5b50600354610229906001600160a01b031681565b6040516001600160a01b0390911681526020015b60405180910390f35b34801561025257600080fd5b5061027f610261366004612ff2565b6001600160a01b031660009081526001602052604090205460ff1690565b604051901515815260200161023d565b34801561029b57600080fd5b506102af6102aa366004613178565b6107d8565b60405190815260200161023d565b3480156102c957600080fd5b506102dd6102d8366004613216565b610b30565b005b3480156102eb57600080fd5b506102dd6102fa36600461326d565b610ed3565b34801561030b57600080fd5b5061031f61031a36600461326d565b610fed565b60405161023d9a999897969594939291906132de565b34801561034157600080fd5b506102dd61035036600461334c565b6110ca565b34801561036157600080fd5b506102dd611135565b34801561037657600080fd5b50600454610229906001600160a01b031681565b34801561039657600080fd5b5061027f6103a5366004613383565b600e60209081526000928352604080842090915290825290205460ff1681565b3480156103d157600080fd5b506102296103e03660046133ad565b61122d565b3480156103f157600080fd5b506102af610400366004613383565b601260209081526000928352604080842090915290825290205481565b34801561042957600080fd5b506102dd611272565b34801561043e57600080fd5b506102dd61044d3660046133d9565b611284565b34801561045e57600080fd5b5061027f61046d36600461341e565b805160208183018101805160088252928201919093012091525460ff1681565b34801561049957600080fd5b50600554610229906001600160a01b031681565b3480156104b957600080fd5b506102dd6104c836600461326d565b6113c7565b3480156104d957600080fd5b506104ed6104e836600461341e565b61149a565b60405161023d959493929190613469565b34801561050a57600080fd5b506000546001600160a01b0316610229565b34801561052857600080fd5b506007546102af9081565b34801561053f57600080fd5b5061022961054e3660046134e7565b6116f6565b34801561055f57600080fd5b506102dd61056e366004612ff2565b61172e565b34801561057f57600080fd5b506102dd61058e36600461326d565b611794565b6102dd6105a1366004613509565b61193d565b3480156105b257600080fd5b506102af6105c136600461326d565b600c6020526000908152604090205481565b3480156105df57600080fd5b5061027f6105ee3660046133d9565b8151602081840181018051600b825292820194820194909420919093529091526000908152604090205460ff1681565b34801561062a57600080fd5b506106806106393660046135cc565b600f6020908152600092835260408084209091529082529020805460018201546002830154600384015460049094015492936001600160a01b0390921692909160ff169085565b604080519586526001600160a01b0390941660208601529284019190915215156060830152608082015260a00161023d565b3480156106be57600080fd5b506102af6106cd3660046135f8565b6010602090815260009283526040909220815180830184018051928152908401929093019190912091525481565b34801561070757600080fd5b506102dd61071636600461326d565b611e6c565b34801561072757600080fd5b5061027f610736366004613383565b601360209081526000928352604080842090915290825290205460ff1681565b34801561076257600080fd5b506102dd61241b565b34801561077757600080fd5b506102dd61078636600461363f565b612526565b34801561079757600080fd5b506102dd6107a6366004612ff2565b6127b3565b3480156107b757600080fd5b506107cb6107c636600461326d565b612829565b60405161023d91906136ec565b60006107e2612918565b3360009081526001602052604090205460ff168061080a57506000546001600160a01b031633145b61082f5760405162461bcd60e51b81526004016108269061374e565b60405180910390fd5b61083d600680546001019055565b8585116108a05760405162461bcd60e51b815260206004820152602b60248201527f42657474696e672073746172742074696d65206973206772656174657220746860448201526a616e20656e642074696d6560a81b6064820152608401610826565b60005b84518110156109b45760088582815181106108c0576108c061378f565b60200260200101516040516108d591906137a5565b9081526040519081900360200190205460ff1661093f5760405162461bcd60e51b815260206004820152602260248201527f4f6e65206f72206d6f7265206d61746368657320646f6573206e6f74206578696044820152611cdd60f21b6064820152608401610826565b6001600b8683815181106109555761095561378f565b602002602001015160405161096a91906137a5565b9081526020016040518091039020600061098360065490565b81526020810191909152604001600020805460ff1916911515919091179055806109ac816137d7565b9150506108a3565b506040518061016001604052806109ca60065490565b81526020018a815260200185815260200187815260200186815260200189815260200188815260200183815260200184815260200160001515815260200160001515815250600a6000610a1c60065490565b8152602080820192909252604001600020825181558282015180519192610a4b92600185019290910190612e8d565b5060408201518051610a67916002840191602090910190612f11565b50606082015160038201556080820151600482015560a0820151600582015560c082015160068083019190915560e08301516007830155610100808401516008840155610120840151600990930180546101409095015161ffff1990951693151561ff001916939093179315150292909217905584519054839190604080518a8152602081018a90527fdbff310385a5a234481df722c49003c9444cfc7de75cae0817453c73afdf2662910160405180910390a450600654600160025598975050505050505050565b610b38612918565b6000848152600a602052604090206003015484904210610b9a5760405162461bcd60e51b815260206004820152601860248201527f506f6f6c2068617320616c7265616479207374617274656400000000000000006044820152606401610826565b6000858152600a6020526040902060090154859060ff1615610bf15760405162461bcd60e51b815260206004820152601060248201526f141bdbdb081a5cc8185c98da1a5d995960821b6044820152606401610826565b6000600a60008881526020019081526020016000206040518061016001604052908160008201548152602001600182018054610c2c906137f2565b80601f0160208091040260200160405190810160405280929190818152602001828054610c58906137f2565b8015610ca55780601f10610c7a57610100808354040283529160200191610ca5565b820191906000526020600020905b815481529060010190602001808311610c8857829003601f168201915b5050505050815260200160028201805480602002602001604051908101604052809291908181526020016000905b82821015610d7f578382906000526020600020018054610cf2906137f2565b80601f0160208091040260200160405190810160405280929190818152602001828054610d1e906137f2565b8015610d6b5780601f10610d4057610100808354040283529160200191610d6b565b820191906000526020600020905b815481529060010190602001808311610d4e57829003601f168201915b505050505081526020019060010190610cd3565b50505090825250600382015460208083019190915260048301546040808401919091526005840154606084015260068401546080840152600784015460a080850191909152600885015460c08086019190915260099095015460ff808216151560e0870152610100918290041615159401939093528482018b81529285018a905292840188905260008b8152600a825292909220835181559051805193945084939192610e3492600185019290910190612e8d565b5060408201518051610e50916002840191602090910190612f11565b50606082015160038201556080820151600482015560a0820151600582015560c0820151600682015560e08201516007820155610100808301516008830155610120830151600990920180546101409094015161ffff1990941692151561ff001916929092179215150291909117905550610ecd91506129709050565b50505050565b610edb612918565b6000818152600a6020526040902060030154819042118015610f0d57506000818152600a602052604090206004015442105b610f4e5760405162461bcd60e51b8152602060048201526012602482015271506f6f6c206973206e6f742061637469766560701b6044820152606401610826565b336000818152600e602090815260408083208684528252808320805460ff19908116909155600f8352818420858552835281842060039081018054909216909155868452600a909252909120600501549054610fb5926001600160a01b0390911691612977565b6000828152600c6020526040902054610fd09060019061382d565b6000838152600c602052604090205550610fea6001600255565b50565b600a602052600090815260409020805460018201805491929161100f906137f2565b80601f016020809104026020016040519081016040528092919081815260200182805461103b906137f2565b80156110885780601f1061105d57610100808354040283529160200191611088565b820191906000526020600020905b81548152906001019060200180831161106b57829003601f168201915b50505050600383015460048401546005850154600686015460078701546008880154600990980154969794969395509193909260ff808216916101009004168a565b6110d26129da565b6001600160a01b038216600081815260016020908152604091829020805460ff19168515159081179091558251938452908301527fe529461c8529abc0e0fe7c5ee361f74fe22e0b7574df1fc0b7558a282091fb78910160405180910390a15050565b61113d612918565b3360009081526001602052604090205460ff168061116557506000546001600160a01b031633145b6111815760405162461bcd60e51b81526004016108269061374e565b60055460405147916000916001600160a01b039091169083908381818185875af1925050503d80600081146111d2576040519150601f19603f3d011682016040523d82523d6000602084013e6111d7565b606091505b505090508061121f5760405162461bcd60e51b81526020600482015260146024820152734661696c656420746f2073656e64204d6174696360601b6044820152606401610826565b505061122b6001600255565b565b6011602052826000526040600020602052816000526040600020818154811061125557600080fd5b6000918252602090912001546001600160a01b0316925083915050565b61127a6129da565b61122b6000612a34565b61128c612918565b6004546001600160a01b03163314806112b457503360009081526001602052604090205460ff165b6112d05760405162461bcd60e51b815260040161082690613844565b60048111156113175760405162461bcd60e51b815260206004820152601360248201527214dd185d1d5cc810dbd919481a5b9d985b1a59606a1b6044820152606401610826565b80600481111561132957611329613453565b60098360405161133991906137a5565b908152602001604051809103902060040160006101000a81548160ff0219169083600481111561136b5761136b613453565b0217905550336001600160a01b0316818360405161138991906137a5565b604051908190038120907f2d63af5347afa116d9f42c28a666b76a295a2b2f20b1b888cc009d157eada66f90600090a46113c36001600255565b5050565b6113cf612918565b6000818152600c60205260409020548190156114395760405162461bcd60e51b815260206004820152602360248201527f506f6f6c20616c72656164792068617320616374697665206265747320706c6160448201526218d95960ea1b6064820152608401610826565b6000828152600a602052604090819020600901805460ff19166001179055517f9dce5fae1bfc452744b9b04bec500982e631b636ca4305841535782d93ccc245906114879084815260200190565b60405180910390a150610fea6001600255565b80516020818301810180516009825292820191909301209152805481906114c0906137f2565b80601f01602080910402602001604051908101604052809291908181526020018280546114ec906137f2565b80156115395780601f1061150e57610100808354040283529160200191611539565b820191906000526020600020905b81548152906001019060200180831161151c57829003601f168201915b50505050509080600101805461154e906137f2565b80601f016020809104026020016040519081016040528092919081815260200182805461157a906137f2565b80156115c75780601f1061159c576101008083540402835291602001916115c7565b820191906000526020600020905b8154815290600101906020018083116115aa57829003601f168201915b5050505050908060020180546115dc906137f2565b80601f0160208091040260200160405190810160405280929190818152602001828054611608906137f2565b80156116555780601f1061162a57610100808354040283529160200191611655565b820191906000526020600020905b81548152906001019060200180831161163857829003601f168201915b50505050509080600301805461166a906137f2565b80601f0160208091040260200160405190810160405280929190818152602001828054611696906137f2565b80156116e35780601f106116b8576101008083540402835291602001916116e3565b820191906000526020600020905b8154815290600101906020018083116116c657829003601f168201915b5050506004909301549192505060ff1685565b600d602052816000526040600020818154811061171257600080fd5b6000918252602090912001546001600160a01b03169150829050565b3360009081526001602052604090205460ff168061175657506000546001600160a01b031633145b6117725760405162461bcd60e51b81526004016108269061374e565b600480546001600160a01b0319166001600160a01b0392909216919091179055565b61179c612918565b6006548111156117be5760405162461bcd60e51b815260040161082690613886565b336000908152601260209081526040808320848452909152902054806118395760405162461bcd60e51b815260206004820152602a60248201527f5573657220686173206e6f207265776172647320746f20636c61696d20666f72604482015269081d1a1a5cc81c1bdbdb60b21b6064820152608401610826565b33600090815260136020908152604080832085845290915290205460ff16156118bf5760405162461bcd60e51b815260206004820152603260248201527f596f75206861766520616c726561647920636c61696d65642074686520726577604482015271185c991cc8199bdc881d1a1a5cc81c1bdbdb60721b6064820152608401610826565b6003546118d6906001600160a01b03163383612977565b336000818152601360209081526040808320868452825291829020805460ff1916600117905581518581529081018490527f1284bc0a7616f127f3f049bad1bb6af81121fa6cb9ac68ff5d5d7edf854a1b98910160405180910390a250610fea6001600255565b611945612918565b6000838152600a6020526040902060090154839060ff161561199c5760405162461bcd60e51b815260206004820152601060248201526f141bdbdb081a5cc8185c98da1a5d995960821b6044820152606401610826565b6000848152600a60205260409020600301548490421180156119ce57506000818152600a602052604090206004015442105b611a0f5760405162461bcd60e51b8152602060048201526012602482015271506f6f6c206973206e6f742061637469766560701b6044820152606401610826565b600654851115611a315760405162461bcd60e51b815260040161082690613886565b8251845114611a7b5760405162461bcd60e51b8152602060048201526016602482015275086c2d8d8c8c2e8c240e6d2f4ca40dad2e6dac2e8c6d60531b6044820152606401610826565b336000908152600e6020908152604080832088845290915290205460ff1615611af85760405162461bcd60e51b815260206004820152602960248201527f5573657220616c7265616479206861732061206c6976652062657420666f72206044820152681d1a1a5cc81c1bdbdb60ba1b6064820152608401610826565b6000858152600a60205260409020600601543414611b685760405162461bcd60e51b815260206004820152602760248201527f496e73756666696369656e74206d617469632073656e7420746f2074686520636044820152661bdb9d1c9858dd60ca1b6064820152608401610826565b6000611b7360075490565b6040805160a08101825288815233602082015290810182905260016060820152600060808201819052919250905b8651811015611d4e57600b878281518110611bbe57611bbe61378f565b6020026020010151604051611bd391906137a5565b908152604080516020928190038301902060008b8152925290205460ff16611c4b5760405162461bcd60e51b815260206004820152602560248201527f4f6e65206f6620746865206d617463686573206973206e6f7420696e20746865604482015264081c1bdbdb60da1b6064820152608401610826565b858181518110611c5d57611c5d61378f565b602002602001015160001480611c8c5750858181518110611c8057611c8061378f565b60200260200101516001145b611cd85760405162461bcd60e51b815260206004820152601960248201527f557365722073656c656374696f6e20697320696e76616c6964000000000000006044820152606401610826565b858181518110611cea57611cea61378f565b602002602001015160106000858152602001908152602001600020888381518110611d1757611d1761378f565b6020026020010151604051611d2c91906137a5565b9081526040519081900360200190205580611d46816137d7565b915050611ba1565b506000878152600f60209081526040808320338085529083528184208551815583860151600180830180546001600160a01b03939093166001600160a01b0319938416179055848801516002840155606088015160038401805491151560ff1992831617905560808901516004909401939093558d8752600d8652848720805480830182559088528688200180549092168417909155918552600e84528285208c86528452828520805490911682179055600c90925290912054611e11916138ae565b6000888152600c6020908152604080832093909355600a90522060050154600354611e4b916001600160a01b039091169033903090612a84565b611e59600780546001019055565b50505050611e676001600255565b505050565b611e74612918565b6004546001600160a01b0316331480611e9c57503360009081526001602052604090205460ff165b611eb85760405162461bcd60e51b815260040161082690613844565b600654811115611eda5760405162461bcd60e51b815260040161082690613886565b6000818152600d6020908152604080832080548251818502810185019093528083529192909190830182828015611f3a57602002820191906000526020600020905b81546001600160a01b03168152600190910190602001808311611f1c575b5050506000858152600a602081815260408084206002810154600c8452918520549390925260079091015495965094909350909150611f8790606490611f81908590612abc565b90612acf565b905060008111611f98576001611f9a565b805b604080516103e8808252617d208201909252919250600091829160208201617d008036833701905050905060005b865181101561226457600e6000888381518110611fe757611fe761378f565b6020908102919091018101516001600160a01b0316825281810192909252604090810160009081208b825290925290205460ff1680156120745750600f600089815260200190815260200160002060008883815181106120495761204961378f565b6020908102919091018101516001600160a01b031682528101919091526040016000206003015460ff165b156122525760006121e4600f60008b815260200190815260200160002060008a85815181106120a5576120a561378f565b6020908102919091018101516001600160a01b0390811683528282019390935260409182016000908120835160a0810185528154815260018201549095168584015260028082015486860152600382015460ff161515606087015260049091015460808601528e8252600a8352838220018054845181850281018501909552808552909290919084015b828210156121db57838290600052602060002001805461214e906137f2565b80601f016020809104026020016040519081016040528092919081815260200182805461217a906137f2565b80156121c75780601f1061219c576101008083540402835291602001916121c7565b820191906000526020600020905b8154815290600101906020018083116121aa57829003601f168201915b50505050508152602001906001019061212f565b50505050612adb565b60008a815260116020908152604080832084845290915290208951919250908990849081106122155761221561378f565b60209081029190910181015182546001810184556000938452919092200180546001600160a01b0319166001600160a01b03909216919091179055505b8061225c816137d7565b915050611fc8565b50845b6000888152601160209081526040808320848452909152902054848410156123365760005b818110156123195760008a815260116020908152604080832086845290915290208054829081106122bf576122bf61378f565b6000918252602090912001546001600160a01b0316846122df83886138ae565b815181106122ef576122ef61378f565b6001600160a01b039092166020928302919091019091015280612311816137d7565b91505061228c565b5061232481856138ae565b935081612331575061234d565b61233c565b5061234d565b50612346816138c6565b9050612267565b5060005b828110156123ec576000888152600c6020908152604080832054600a90925290912060050154612386918591611f8191612abc565b6012600084848151811061239c5761239c61378f565b60200260200101516001600160a01b03166001600160a01b0316815260200190815260200160002060008a81526020019081526020016000208190555080806123e4906137d7565b915050612351565b5050506000858152600a60205260409020600901805461ff00191661010017905550610fea9250612970915050565b612423612918565b3360009081526001602052604090205460ff168061244b57506000546001600160a01b031633145b6124675760405162461bcd60e51b81526004016108269061374e565b6003546040516370a0823160e01b81523060048201526000916001600160a01b0316906370a0823190602401602060405180830381865afa1580156124b0573d6000803e3d6000fd5b505050506040513d601f19601f820116820180604052508101906124d491906138dd565b6003549091506124ee906001600160a01b03163383612977565b604051819033907f57d9989cf85bcbe79b267935030d7262857ea01d7ef7123745d6e98c27dcc75f90600090a35061122b6001600255565b61252e612918565b3360009081526001602052604090205460ff168061255657506000546001600160a01b031633145b6125725760405162461bcd60e51b81526004016108269061374e565b60005b84518110156127a8576040518060a0016040528086838151811061259b5761259b61378f565b602002602001015181526020018583815181106125ba576125ba61378f565b602002602001015181526020018483815181106125d9576125d961378f565b602002602001015181526020018383815181106125f8576125f861378f565b602002602001015181526020016000600481111561261857612618613453565b815250600986838151811061262f5761262f61378f565b602002602001015160405161264491906137a5565b9081526020016040518091039020600082015181600001908051906020019061266e929190612e8d565b5060208281015180516126879260018501920190612e8d565b50604082015180516126a3916002840191602090910190612e8d565b50606082015180516126bf916003840191602090910190612e8d565b5060808201518160040160006101000a81548160ff021916908360048111156126ea576126ea613453565b0217905550905050600160088683815181106127085761270861378f565b602002602001015160405161271d91906137a5565b908152604051908190036020019020805491151560ff1990921691909117905584518590829081106127515761275161378f565b602002602001015160405161276691906137a5565b604051908190038120907f3a1990ba568b52c2b03bed9b883dacc337aece0c185dd7db65a22b1c96fca2cc90600090a2806127a0816137d7565b915050612575565b50610ecd6001600255565b6127bb6129da565b6001600160a01b0381166128205760405162461bcd60e51b815260206004820152602660248201527f4f776e61626c653a206e6577206f776e657220697320746865207a65726f206160448201526564647265737360d01b6064820152608401610826565b610fea81612a34565b6060600a6000838152602001908152602001600020600201805480602002602001604051908101604052809291908181526020016000905b8282101561290d578382906000526020600020018054612880906137f2565b80601f01602080910402602001604051908101604052809291908181526020018280546128ac906137f2565b80156128f95780601f106128ce576101008083540402835291602001916128f9565b820191906000526020600020905b8154815290600101906020018083116128dc57829003601f168201915b505050505081526020019060010190612861565b505050509050919050565b60028054141561296a5760405162461bcd60e51b815260206004820152601f60248201527f5265656e7472616e637947756172643a207265656e7472616e742063616c6c006044820152606401610826565b60028055565b6001600255565b6040516001600160a01b038316602482015260448101829052611e6790849063a9059cbb60e01b906064015b60408051601f198184030181529190526020810180516001600160e01b03166001600160e01b031990931692909217909152612c2e565b6000546001600160a01b0316331461122b5760405162461bcd60e51b815260206004820181905260248201527f4f776e61626c653a2063616c6c6572206973206e6f7420746865206f776e65726044820152606401610826565b600080546001600160a01b038381166001600160a01b0319831681178455604051919092169283917f8be0079c531659141344cd1fd0a4f28419497f9722a3daafe3b4186f6b6457e09190a35050565b6040516001600160a01b0380851660248301528316604482015260648101829052610ecd9085906323b872dd60e01b906084016129a3565b6000612ac882846138f6565b9392505050565b6000612ac88284613915565b60408201516000908190815b8451811015612c245760008281526010602052604081208651879084908110612b1257612b1261378f565b6020026020010151604051612b2791906137a5565b9081526020016040518091039020549050806000148015612b98575060016009878481518110612b5957612b5961378f565b6020026020010151604051612b6e91906137a5565b90815260405190819003602001902060049081015460ff1690811115612b9657612b96613453565b145b80612bfe5750806001148015612bfe575060026009878481518110612bbf57612bbf61378f565b6020026020010151604051612bd491906137a5565b90815260405190819003602001902060049081015460ff1690811115612bfc57612bfc613453565b145b15612c1157612c0e6001856138ae565b93505b5080612c1c816137d7565b915050612ae7565b5090949350505050565b6000612c83826040518060400160405280602081526020017f5361666545524332303a206c6f772d6c6576656c2063616c6c206661696c6564815250856001600160a01b0316612d009092919063ffffffff16565b805190915015611e675780806020019051810190612ca19190613937565b611e675760405162461bcd60e51b815260206004820152602a60248201527f5361666545524332303a204552433230206f7065726174696f6e20646964206e6044820152691bdd081cdd58d8d9595960b21b6064820152608401610826565b6060612d0f8484600085612d17565b949350505050565b606082471015612d785760405162461bcd60e51b815260206004820152602660248201527f416464726573733a20696e73756666696369656e742062616c616e636520666f6044820152651c8818d85b1b60d21b6064820152608401610826565b600080866001600160a01b03168587604051612d9491906137a5565b60006040518083038185875af1925050503d8060008114612dd1576040519150601f19603f3d011682016040523d82523d6000602084013e612dd6565b606091505b5091509150612de787838387612df2565b979650505050505050565b60608315612e5e578251612e57576001600160a01b0385163b612e575760405162461bcd60e51b815260206004820152601d60248201527f416464726573733a2063616c6c20746f206e6f6e2d636f6e74726163740000006044820152606401610826565b5081612d0f565b612d0f8383815115612e735781518083602001fd5b8060405162461bcd60e51b81526004016108269190613954565b828054612e99906137f2565b90600052602060002090601f016020900481019282612ebb5760008555612f01565b82601f10612ed457805160ff1916838001178555612f01565b82800160010185558215612f01579182015b82811115612f01578251825591602001919060010190612ee6565b50612f0d929150612f6a565b5090565b828054828255906000526020600020908101928215612f5e579160200282015b82811115612f5e5782518051612f4e918491602090910190612e8d565b5091602001919060010190612f31565b50612f0d929150612f7f565b5b80821115612f0d5760008155600101612f6b565b80821115612f0d576000612f938282612f9c565b50600101612f7f565b508054612fa8906137f2565b6000825580601f10612fb8575050565b601f016020900490600052602060002090810190610fea9190612f6a565b80356001600160a01b0381168114612fed57600080fd5b919050565b60006020828403121561300457600080fd5b612ac882612fd6565b634e487b7160e01b600052604160045260246000fd5b604051601f8201601f1916810167ffffffffffffffff8111828210171561304c5761304c61300d565b604052919050565b600082601f83011261306557600080fd5b813567ffffffffffffffff81111561307f5761307f61300d565b613092601f8201601f1916602001613023565b8181528460208386010111156130a757600080fd5b816020850160208301376000918101602001919091529392505050565b600067ffffffffffffffff8211156130de576130de61300d565b5060051b60200190565b600082601f8301126130f957600080fd5b8135602061310e613109836130c4565b613023565b82815260059290921b8401810191818101908684111561312d57600080fd5b8286015b8481101561316d57803567ffffffffffffffff8111156131515760008081fd5b61315f8986838b0101613054565b845250918301918301613131565b509695505050505050565b600080600080600080600080610100898b03121561319557600080fd5b883567ffffffffffffffff808211156131ad57600080fd5b6131b98c838d01613054565b995060208b0135985060408b0135975060608b0135965060808b0135955060a08b01359150808211156131eb57600080fd5b506131f88b828c016130e8565b93505060c0890135915060e089013590509295985092959890939650565b6000806000806080858703121561322c57600080fd5b84359350602085013567ffffffffffffffff81111561324a57600080fd5b61325687828801613054565b949794965050505060408301359260600135919050565b60006020828403121561327f57600080fd5b5035919050565b60005b838110156132a1578181015183820152602001613289565b83811115610ecd5750506000910152565b600081518084526132ca816020860160208601613286565b601f01601f19169290920160200192915050565b60006101408c83528060208401526132f88184018d6132b2565b604084019b909b5250506060810197909752608087019590955260a086019390935260c085019190915260e0840152151561010083015215156101209091015292915050565b8015158114610fea57600080fd5b6000806040838503121561335f57600080fd5b61336883612fd6565b915060208301356133788161333e565b809150509250929050565b6000806040838503121561339657600080fd5b61339f83612fd6565b946020939093013593505050565b6000806000606084860312156133c257600080fd5b505081359360208301359350604090920135919050565b600080604083850312156133ec57600080fd5b823567ffffffffffffffff81111561340357600080fd5b61340f85828601613054565b95602094909401359450505050565b60006020828403121561343057600080fd5b813567ffffffffffffffff81111561344757600080fd5b612d0f84828501613054565b634e487b7160e01b600052602160045260246000fd5b60a08152600061347c60a08301886132b2565b828103602084015261348e81886132b2565b905082810360408401526134a281876132b2565b905082810360608401526134b681866132b2565b915050600583106134d757634e487b7160e01b600052602160045260246000fd5b8260808301529695505050505050565b600080604083850312156134fa57600080fd5b50508035926020909101359150565b60008060006060848603121561351e57600080fd5b8335925060208085013567ffffffffffffffff8082111561353e57600080fd5b61354a888389016130e8565b9450604087013591508082111561356057600080fd5b508501601f8101871361357257600080fd5b8035613580613109826130c4565b81815260059190911b8201830190838101908983111561359f57600080fd5b928401925b828410156135bd578335825292840192908401906135a4565b80955050505050509250925092565b600080604083850312156135df57600080fd5b823591506135ef60208401612fd6565b90509250929050565b6000806040838503121561360b57600080fd5b82359150602083013567ffffffffffffffff81111561362957600080fd5b61363585828601613054565b9150509250929050565b6000806000806080858703121561365557600080fd5b843567ffffffffffffffff8082111561366d57600080fd5b613679888389016130e8565b9550602087013591508082111561368f57600080fd5b61369b888389016130e8565b945060408701359150808211156136b157600080fd5b6136bd888389016130e8565b935060608701359150808211156136d357600080fd5b506136e0878288016130e8565b91505092959194509250565b6000602080830181845280855180835260408601915060408160051b870101925083870160005b8281101561374157603f1988860301845261372f8583516132b2565b94509285019290850190600101613713565b5092979650505050505050565b60208082526021908201527f43616c6c657220646f6573206e6f7420686176652041646d696e2041636365736040820152607360f81b606082015260800190565b634e487b7160e01b600052603260045260246000fd5b600082516137b7818460208701613286565b9190910192915050565b634e487b7160e01b600052601160045260246000fd5b60006000198214156137eb576137eb6137c1565b5060010190565b600181811c9082168061380657607f821691505b6020821081141561382757634e487b7160e01b600052602260045260246000fd5b50919050565b60008282101561383f5761383f6137c1565b500390565b60208082526022908201527f43616c6c6572206973206e6569746865722061646d696e206e6f72206772616460408201526132b960f11b606082015260800190565b6020808252600e908201526d125b9d985b1a59081c1bdbdb125160921b604082015260600190565b600082198211156138c1576138c16137c1565b500190565b6000816138d5576138d56137c1565b506000190190565b6000602082840312156138ef57600080fd5b5051919050565b6000816000190483118215151615613910576139106137c1565b500290565b60008261393257634e487b7160e01b600052601260045260246000fd5b500490565b60006020828403121561394957600080fd5b8151612ac88161333e565b602081526000612ac860208301846132b256fea2646970667358221220c7efe725d3719cf168390041d8dfb69b08fbd840089ea67c55a318573bc5661564736f6c634300080b0033",
  "linkReferences": {},
  "deployedLinkReferences": {}
}